{
  "_format": "hh-sol-artifact-1",
  "contractName": "LiveNftFactory",
  "sourceName": "src/LiveNftFactory.sol",
  "abi": [
    {
      "inputs": [
        {
          "internalType": "address",
          "name": "_masterContract",
          "type": "address"
        }
      ],
      "stateMutability": "nonpayable",
      "type": "constructor"
    },
    {
      "inputs": [
        {
          "internalType": "string",
          "name": "_uri",
          "type": "string"
        },
        {
          "internalType": "string",
          "name": "_name",
          "type": "string"
        },
        {
          "internalType": "string",
          "name": "_description",
          "type": "string"
        },
        {
          "internalType": "uint256",
          "name": "_supply",
          "type": "uint256"
        },
        {
          "internalType": "uint256",
          "name": "_price",
          "type": "uint256"
        }
      ],
      "name": "createLiveNFT",
      "outputs": [],
      "stateMutability": "nonpayable",
      "type": "function"
    },
    {
      "inputs": [
        {
          "internalType": "address",
          "name": "_creatorAddress",
          "type": "address"
        }
      ],
      "name": "getCreatorChannels",
      "outputs": [
        {
          "internalType": "address[]",
          "name": "",
          "type": "address[]"
        }
      ],
      "stateMutability": "view",
      "type": "function"
    },
    {
      "inputs": [
        {
          "internalType": "uint256",
          "name": "",
          "type": "uint256"
        }
      ],
      "name": "livenfts",
      "outputs": [
        {
          "internalType": "address",
          "name": "",
          "type": "address"
        }
      ],
      "stateMutability": "view",
      "type": "function"
    }
  ],
  "bytecode": "0x608060405234801561001057600080fd5b50604051610a50380380610a50833981810160405281019061003291906100db565b806000806101000a81548173ffffffffffffffffffffffffffffffffffffffff021916908373ffffffffffffffffffffffffffffffffffffffff16021790555050610108565b600080fd5b600073ffffffffffffffffffffffffffffffffffffffff82169050919050565b60006100a88261007d565b9050919050565b6100b88161009d565b81146100c357600080fd5b50565b6000815190506100d5816100af565b92915050565b6000602082840312156100f1576100f0610078565b5b60006100ff848285016100c6565b91505092915050565b610939806101176000396000f3fe608060405234801561001057600080fd5b50600436106100415760003560e01c8063352302571461004657806335bdd62b14610062578063cb19d80114610092575b600080fd5b610060600480360381019061005b9190610573565b6100c2565b005b61007c600480360381019061007791906106a0565b61026d565b604051610089919061078b565b60405180910390f35b6100ac60048036038101906100a791906107ad565b61033a565b6040516100b991906107e9565b60405180910390f35b60006100ed60008054906101000a900473ffffffffffffffffffffffffffffffffffffffff16610379565b90508073ffffffffffffffffffffffffffffffffffffffff1663a13a16dc87878787876040518663ffffffff1660e01b815260040161013095949392919061089b565b600060405180830381600087803b15801561014a57600080fd5b505af115801561015e573d6000803e3d6000fd5b505050506001819080600181540180825580915050600190039060005260206000200160009091909190916101000a81548173ffffffffffffffffffffffffffffffffffffffff021916908373ffffffffffffffffffffffffffffffffffffffff160217905550600260003373ffffffffffffffffffffffffffffffffffffffff1673ffffffffffffffffffffffffffffffffffffffff168152602001908152602001600020819080600181540180825580915050600190039060005260206000200160009091909190916101000a81548173ffffffffffffffffffffffffffffffffffffffff021916908373ffffffffffffffffffffffffffffffffffffffff160217905550505050505050565b6060600260008373ffffffffffffffffffffffffffffffffffffffff1673ffffffffffffffffffffffffffffffffffffffff16815260200190815260200160002080548060200260200160405190810160405280929190818152602001828054801561032e57602002820191906000526020600020905b8160009054906101000a900473ffffffffffffffffffffffffffffffffffffffff1673ffffffffffffffffffffffffffffffffffffffff16815260200190600101908083116102e4575b50505050509050919050565b6001818154811061034a57600080fd5b906000526020600020016000915054906101000a900473ffffffffffffffffffffffffffffffffffffffff1681565b6000808260601b90506040517f3d602d80600a3d3981f3363d3d373d3d3d363d7300000000000000000000000081528160148201527f5af43d82803e903d91602b57fd5bf3000000000000000000000000000000000060288201526037816000f092505050919050565b6000604051905090565b600080fd5b600080fd5b600080fd5b600080fd5b6000601f19601f8301169050919050565b7f4e487b7100000000000000000000000000000000000000000000000000000000600052604160045260246000fd5b61044a82610401565b810181811067ffffffffffffffff8211171561046957610468610412565b5b80604052505050565b600061047c6103e3565b90506104888282610441565b919050565b600067ffffffffffffffff8211156104a8576104a7610412565b5b6104b182610401565b9050602081019050919050565b82818337600083830152505050565b60006104e06104db8461048d565b610472565b9050828152602081018484840111156104fc576104fb6103fc565b5b6105078482856104be565b509392505050565b600082601f830112610524576105236103f7565b5b81356105348482602086016104cd565b91505092915050565b6000819050919050565b6105508161053d565b811461055b57600080fd5b50565b60008135905061056d81610547565b92915050565b600080600080600060a0868803121561058f5761058e6103ed565b5b600086013567ffffffffffffffff8111156105ad576105ac6103f2565b5b6105b98882890161050f565b955050602086013567ffffffffffffffff8111156105da576105d96103f2565b5b6105e68882890161050f565b945050604086013567ffffffffffffffff811115610607576106066103f2565b5b6106138882890161050f565b93505060606106248882890161055e565b92505060806106358882890161055e565b9150509295509295909350565b600073ffffffffffffffffffffffffffffffffffffffff82169050919050565b600061066d82610642565b9050919050565b61067d81610662565b811461068857600080fd5b50565b60008135905061069a81610674565b92915050565b6000602082840312156106b6576106b56103ed565b5b60006106c48482850161068b565b91505092915050565b600081519050919050565b600082825260208201905092915050565b6000819050602082019050919050565b61070281610662565b82525050565b600061071483836106f9565b60208301905092915050565b6000602082019050919050565b6000610738826106cd565b61074281856106d8565b935061074d836106e9565b8060005b8381101561077e5781516107658882610708565b975061077083610720565b925050600181019050610751565b5085935050505092915050565b600060208201905081810360008301526107a5818461072d565b905092915050565b6000602082840312156107c3576107c26103ed565b5b60006107d18482850161055e565b91505092915050565b6107e381610662565b82525050565b60006020820190506107fe60008301846107da565b92915050565b600081519050919050565b600082825260208201905092915050565b60005b8381101561083e578082015181840152602081019050610823565b8381111561084d576000848401525b50505050565b600061085e82610804565b610868818561080f565b9350610878818560208601610820565b61088181610401565b840191505092915050565b6108958161053d565b82525050565b600060a08201905081810360008301526108b58188610853565b905081810360208301526108c98187610853565b905081810360408301526108dd8186610853565b90506108ec606083018561088c565b6108f9608083018461088c565b969550505050505056fea26469706673582212205d82ede178285d663c52a846b9e237a34fa20e345915f193cf0545472e9e93dc64736f6c634300080a0033",
  "linkReferences": {},
  "deployedLinkReferences": {}
}