{
  "_format": "hh-sol-artifact-1",
  "contractName": "LNFTFactory",
  "sourceName": "src/LiveNftFactory.sol",
  "abi": [
    {
      "inputs": [
        {
          "internalType": "string",
          "name": "_uri",
          "type": "string"
        },
        {
          "internalType": "string",
          "name": "_name",
          "type": "string"
        },
        {
          "internalType": "string",
          "name": "_description",
          "type": "string"
        },
        {
          "internalType": "uint256",
          "name": "_totalSupply",
          "type": "uint256"
        },
        {
          "internalType": "uint256",
          "name": "_mintPrice",
          "type": "uint256"
        }
      ],
      "name": "createLiveNFT",
      "outputs": [
        {
          "internalType": "address",
          "name": "",
          "type": "address"
        }
      ],
      "stateMutability": "nonpayable",
      "type": "function"
    },
    {
      "inputs": [
        {
          "internalType": "address",
          "name": "_creatorAddress",
          "type": "address"
        }
      ],
      "name": "getCreatorChannels",
      "outputs": [
        {
          "internalType": "address[]",
          "name": "",
          "type": "address[]"
        }
      ],
      "stateMutability": "view",
      "type": "function"
    },
    {
      "inputs": [
        {
          "internalType": "address",
          "name": "_liveNftAddress",
          "type": "address"
        }
      ],
      "name": "getMetadata",
      "outputs": [
        {
          "internalType": "string",
          "name": "",
          "type": "string"
        },
        {
          "internalType": "string",
          "name": "",
          "type": "string"
        },
        {
          "internalType": "string",
          "name": "",
          "type": "string"
        },
        {
          "internalType": "uint256",
          "name": "",
          "type": "uint256"
        },
        {
          "internalType": "uint256",
          "name": "",
          "type": "uint256"
        }
      ],
      "stateMutability": "view",
      "type": "function"
    },
    {
      "inputs": [
        {
          "internalType": "uint256",
          "name": "",
          "type": "uint256"
        }
      ],
      "name": "livenfts",
      "outputs": [
        {
          "internalType": "address",
          "name": "",
          "type": "address"
        }
      ],
      "stateMutability": "view",
      "type": "function"
    },
    {
      "inputs": [],
      "name": "masterContract",
      "outputs": [
        {
          "internalType": "address",
          "name": "",
          "type": "address"
        }
      ],
      "stateMutability": "view",
      "type": "function"
    }
  ],
  "bytecode": "0x608060405234801561001057600080fd5b50614607806100206000396000f3fe60806040523480156200001157600080fd5b50600436106200005e5760003560e01c80632a50c146146200006357806335230257146200009d57806335bdd62b14620000d3578063cb19d8011462000109578063cd446e22146200013f575b600080fd5b6200008160048036038101906200007b919062000649565b62000161565b604051620000949594939291906200073a565b60405180910390f35b620000bb6004803603810190620000b591906200092e565b620001f3565b604051620000ca919062000a24565b60405180910390f35b620000f16004803603810190620000eb919062000649565b6200048f565b60405162000100919062000b0f565b60405180910390f35b62000127600480360381019062000121919062000b33565b6200055e565b60405162000136919062000a24565b60405180910390f35b620001496200059e565b60405162000158919062000a24565b60405180910390f35b60608060606000808573ffffffffffffffffffffffffffffffffffffffff16637a5b4f596040518163ffffffff1660e01b8152600401600060405180830381865afa158015620001b5573d6000803e3d6000fd5b505050506040513d6000823e3d601f19601f82011682018060405250810190620001e0919062000bfa565b9450945094509450945091939590929450565b6000806040516200020490620005c2565b604051809103906000f08015801562000221573d6000803e3d6000fd5b50905060008190508073ffffffffffffffffffffffffffffffffffffffff1663a13a16dc89898989896040518663ffffffff1660e01b81526004016200026c9594939291906200073a565b600060405180830381600087803b1580156200028757600080fd5b505af11580156200029c573d6000803e3d6000fd5b505050506001819080600181540180825580915050600190039060005260206000200160009091909190916101000a81548173ffffffffffffffffffffffffffffffffffffffff021916908373ffffffffffffffffffffffffffffffffffffffff160217905550600260003373ffffffffffffffffffffffffffffffffffffffff1673ffffffffffffffffffffffffffffffffffffffff168152602001908152602001600020819080600181540180825580915050600190039060005260206000200160009091909190916101000a81548173ffffffffffffffffffffffffffffffffffffffff021916908373ffffffffffffffffffffffffffffffffffffffff1602179055508173ffffffffffffffffffffffffffffffffffffffff1663fa07ce1d336040518263ffffffff1660e01b8152600401620003de919062000a24565b600060405180830381600087803b158015620003f957600080fd5b505af11580156200040e573d6000803e3d6000fd5b505050508173ffffffffffffffffffffffffffffffffffffffff1663f2fde38b336040518263ffffffff1660e01b81526004016200044d919062000a24565b600060405180830381600087803b1580156200046857600080fd5b505af11580156200047d573d6000803e3d6000fd5b50505050809250505095945050505050565b6060600260008373ffffffffffffffffffffffffffffffffffffffff1673ffffffffffffffffffffffffffffffffffffffff1681526020019081526020016000208054806020026020016040519081016040528092919081815260200182805480156200055257602002820191906000526020600020905b8160009054906101000a900473ffffffffffffffffffffffffffffffffffffffff1673ffffffffffffffffffffffffffffffffffffffff168152602001906001019080831162000507575b50505050509050919050565b600181815481106200056f57600080fd5b906000526020600020016000915054906101000a900473ffffffffffffffffffffffffffffffffffffffff1681565b60008054906101000a900473ffffffffffffffffffffffffffffffffffffffff1681565b6138f28062000ce083390190565b6000604051905090565b600080fd5b600080fd5b600073ffffffffffffffffffffffffffffffffffffffff82169050919050565b60006200061182620005e4565b9050919050565b620006238162000604565b81146200062f57600080fd5b50565b600081359050620006438162000618565b92915050565b600060208284031215620006625762000661620005da565b5b6000620006728482850162000632565b91505092915050565b600081519050919050565b600082825260208201905092915050565b60005b83811015620006b75780820151818401526020810190506200069a565b83811115620006c7576000848401525b50505050565b6000601f19601f8301169050919050565b6000620006eb826200067b565b620006f7818562000686565b93506200070981856020860162000697565b6200071481620006cd565b840191505092915050565b6000819050919050565b62000734816200071f565b82525050565b600060a0820190508181036000830152620007568188620006de565b905081810360208301526200076c8187620006de565b90508181036040830152620007828186620006de565b905062000793606083018562000729565b620007a2608083018462000729565b9695505050505050565b600080fd5b600080fd5b7f4e487b7100000000000000000000000000000000000000000000000000000000600052604160045260246000fd5b620007f082620006cd565b810181811067ffffffffffffffff82111715620008125762000811620007b6565b5b80604052505050565b600062000827620005d0565b9050620008358282620007e5565b919050565b600067ffffffffffffffff821115620008585762000857620007b6565b5b6200086382620006cd565b9050602081019050919050565b82818337600083830152505050565b60006200089662000890846200083a565b6200081b565b905082815260208101848484011115620008b557620008b4620007b1565b5b620008c284828562000870565b509392505050565b600082601f830112620008e257620008e1620007ac565b5b8135620008f48482602086016200087f565b91505092915050565b62000908816200071f565b81146200091457600080fd5b50565b6000813590506200092881620008fd565b92915050565b600080600080600060a086880312156200094d576200094c620005da565b5b600086013567ffffffffffffffff8111156200096e576200096d620005df565b5b6200097c88828901620008ca565b955050602086013567ffffffffffffffff811115620009a0576200099f620005df565b5b620009ae88828901620008ca565b945050604086013567ffffffffffffffff811115620009d257620009d1620005df565b5b620009e088828901620008ca565b9350506060620009f38882890162000917565b925050608062000a068882890162000917565b9150509295509295909350565b62000a1e8162000604565b82525050565b600060208201905062000a3b600083018462000a13565b92915050565b600081519050919050565b600082825260208201905092915050565b6000819050602082019050919050565b62000a788162000604565b82525050565b600062000a8c838362000a6d565b60208301905092915050565b6000602082019050919050565b600062000ab28262000a41565b62000abe818562000a4c565b935062000acb8362000a5d565b8060005b8381101562000b0257815162000ae6888262000a7e565b975062000af38362000a98565b92505060018101905062000acf565b5085935050505092915050565b6000602082019050818103600083015262000b2b818462000aa5565b905092915050565b60006020828403121562000b4c5762000b4b620005da565b5b600062000b5c8482850162000917565b91505092915050565b600062000b7c62000b76846200083a565b6200081b565b90508281526020810184848401111562000b9b5762000b9a620007b1565b5b62000ba884828562000697565b509392505050565b600082601f83011262000bc85762000bc7620007ac565b5b815162000bda84826020860162000b65565b91505092915050565b60008151905062000bf481620008fd565b92915050565b600080600080600060a0868803121562000c195762000c18620005da565b5b600086015167ffffffffffffffff81111562000c3a5762000c39620005df565b5b62000c488882890162000bb0565b955050602086015167ffffffffffffffff81111562000c6c5762000c6b620005df565b5b62000c7a8882890162000bb0565b945050604086015167ffffffffffffffff81111562000c9e5762000c9d620005df565b5b62000cac8882890162000bb0565b935050606062000cbf8882890162000be3565b925050608062000cd28882890162000be3565b915050929550929590935056fe60806040523480156200001157600080fd5b506040518060400160405280600781526020017f4c6976654e4654000000000000000000000000000000000000000000000000008152506040518060400160405280600481526020017f4c4e465400000000000000000000000000000000000000000000000000000000815250816000908051906020019062000096929190620001a6565b508060019080519060200190620000af929190620001a6565b505050620000d2620000c6620000d860201b60201c565b620000e060201b60201c565b620002bb565b600033905090565b6000600660009054906101000a900473ffffffffffffffffffffffffffffffffffffffff16905081600660006101000a81548173ffffffffffffffffffffffffffffffffffffffff021916908373ffffffffffffffffffffffffffffffffffffffff1602179055508173ffffffffffffffffffffffffffffffffffffffff168173ffffffffffffffffffffffffffffffffffffffff167f8be0079c531659141344cd1fd0a4f28419497f9722a3daafe3b4186f6b6457e060405160405180910390a35050565b828054620001b49062000285565b90600052602060002090601f016020900481019282620001d8576000855562000224565b82601f10620001f357805160ff191683800117855562000224565b8280016001018555821562000224579182015b828111156200022357825182559160200191906001019062000206565b5b50905062000233919062000237565b5090565b5b808211156200025257600081600090555060010162000238565b5090565b7f4e487b7100000000000000000000000000000000000000000000000000000000600052602260045260246000fd5b600060028204905060018216806200029e57607f821691505b60208210811415620002b557620002b462000256565b5b50919050565b61362780620002cb6000396000f3fe6080604052600436106101c15760003560e01c80637284e416116100f7578063a22cb46511610095578063e0df5b6f11610064578063e0df5b6f14610638578063e985e9c514610661578063f2fde38b1461069e578063fa07ce1d146106c7576101c1565b8063a22cb4651461057e578063b88d4fde146105a7578063c87b56dd146105d0578063d547cfb71461060d576101c1565b80638741f6b6116100d15780638741f6b6146104d45780638da5cb5b146104ff57806395d89b411461052a578063a13a16dc14610555576101c1565b80637284e4161461044a578063755edd17146104755780637a5b4f59146104a5576101c1565b806323b872dd116101645780636352211e1161013e5780636352211e1461038e5780636817c76c146103cb57806370a08231146103f6578063715018a614610433576101c1565b806323b872dd1461031357806331b3eb941461033c57806342842e0e14610365576101c1565b806306fdde03116101a057806306fdde0314610257578063081812fc14610282578063095ea7b3146102bf57806318160ddd146102e8576101c1565b80629a9b7b146101c657806301ffc9a7146101f157806304da18091461022e575b600080fd5b3480156101d257600080fd5b506101db6106f0565b6040516101e89190612385565b60405180910390f35b3480156101fd57600080fd5b506102186004803603810190610213919061240c565b6106f6565b6040516102259190612454565b60405180910390f35b34801561023a57600080fd5b50610255600480360381019061025091906124cd565b6107d8565b005b34801561026357600080fd5b5061026c610846565b6040516102799190612593565b60405180910390f35b34801561028e57600080fd5b506102a960048036038101906102a491906125e1565b6108d8565b6040516102b6919061261d565b60405180910390f35b3480156102cb57600080fd5b506102e660048036038101906102e19190612638565b61091e565b005b3480156102f457600080fd5b506102fd610a36565b60405161030a9190612385565b60405180910390f35b34801561031f57600080fd5b5061033a60048036038101906103359190612678565b610a3c565b005b34801561034857600080fd5b50610363600480360381019061035e9190612709565b610a9c565b005b34801561037157600080fd5b5061038c60048036038101906103879190612678565b610b51565b005b34801561039a57600080fd5b506103b560048036038101906103b091906125e1565b610b71565b6040516103c2919061261d565b60405180910390f35b3480156103d757600080fd5b506103e0610bf8565b6040516103ed9190612385565b60405180910390f35b34801561040257600080fd5b5061041d600480360381019061041891906124cd565b610bfe565b60405161042a9190612385565b60405180910390f35b34801561043f57600080fd5b50610448610cb6565b005b34801561045657600080fd5b5061045f610cca565b60405161046c9190612593565b60405180910390f35b61048f600480360381019061048a91906124cd565b610d58565b60405161049c9190612385565b60405180910390f35b3480156104b157600080fd5b506104ba610e13565b6040516104cb959493929190612736565b60405180910390f35b3480156104e057600080fd5b506104e9610fdc565b6040516104f69190612593565b60405180910390f35b34801561050b57600080fd5b5061051461106a565b604051610521919061261d565b60405180910390f35b34801561053657600080fd5b5061053f611094565b60405161054c9190612593565b60405180910390f35b34801561056157600080fd5b5061057c600480360381019061057791906128d3565b611126565b005b34801561058a57600080fd5b506105a560048036038101906105a091906129ce565b611180565b005b3480156105b357600080fd5b506105ce60048036038101906105c99190612aaf565b611196565b005b3480156105dc57600080fd5b506105f760048036038101906105f291906125e1565b6111f8565b6040516106049190612593565b60405180910390f35b34801561061957600080fd5b506106226112d4565b60405161062f9190612593565b60405180910390f35b34801561064457600080fd5b5061065f600480360381019061065a9190612b32565b611362565b005b34801561066d57600080fd5b5061068860048036038101906106839190612b7b565b611384565b6040516106959190612454565b60405180910390f35b3480156106aa57600080fd5b506106c560048036038101906106c091906124cd565b611418565b005b3480156106d357600080fd5b506106ee60048036038101906106e991906124cd565b61149c565b005b60075481565b60007f80ac58cd000000000000000000000000000000000000000000000000000000007bffffffffffffffffffffffffffffffffffffffffffffffffffffffff1916827bffffffffffffffffffffffffffffffffffffffffffffffffffffffff191614806107c157507f5b5e139f000000000000000000000000000000000000000000000000000000007bffffffffffffffffffffffffffffffffffffffffffffffffffffffff1916827bffffffffffffffffffffffffffffffffffffffffffffffffffffffff1916145b806107d157506107d0826114cb565b5b9050919050565b6107e0611535565b600d819080600181540180825580915050600190039060005260206000200160009091909190916101000a81548173ffffffffffffffffffffffffffffffffffffffff021916908373ffffffffffffffffffffffffffffffffffffffff16021790555050565b60606008805461085590612bea565b80601f016020809104026020016040519081016040528092919081815260200182805461088190612bea565b80156108ce5780601f106108a3576101008083540402835291602001916108ce565b820191906000526020600020905b8154815290600101906020018083116108b157829003601f168201915b5050505050905090565b60006108e3826115b3565b6004600083815260200190815260200160002060009054906101000a900473ffffffffffffffffffffffffffffffffffffffff169050919050565b600061092982610b71565b90508073ffffffffffffffffffffffffffffffffffffffff168373ffffffffffffffffffffffffffffffffffffffff16141561099a576040517f08c379a000000000000000000000000000000000000000000000000000000000815260040161099190612c8e565b60405180910390fd5b8073ffffffffffffffffffffffffffffffffffffffff166109b96115fe565b73ffffffffffffffffffffffffffffffffffffffff1614806109e857506109e7816109e26115fe565b611384565b5b610a27576040517f08c379a0000000000000000000000000000000000000000000000000000000008152600401610a1e90612d20565b60405180910390fd5b610a318383611606565b505050565b600b5481565b610a4d610a476115fe565b826116bf565b610a8c576040517f08c379a0000000000000000000000000000000000000000000000000000000008152600401610a8390612db2565b60405180910390fd5b610a97838383611754565b505050565b610aa4611535565b600047905060008273ffffffffffffffffffffffffffffffffffffffff1682604051610acf90612e03565b60006040518083038185875af1925050503d8060008114610b0c576040519150601f19603f3d011682016040523d82523d6000602084013e610b11565b606091505b5050905080610b4c576040517fd23a9e8900000000000000000000000000000000000000000000000000000000815260040160405180910390fd5b505050565b610b6c83838360405180602001604052806000815250611196565b505050565b600080610b7d83611a4e565b9050600073ffffffffffffffffffffffffffffffffffffffff168173ffffffffffffffffffffffffffffffffffffffff161415610bef576040517f08c379a0000000000000000000000000000000000000000000000000000000008152600401610be690612e64565b60405180910390fd5b80915050919050565b600c5481565b60008073ffffffffffffffffffffffffffffffffffffffff168273ffffffffffffffffffffffffffffffffffffffff161415610c6f576040517f08c379a0000000000000000000000000000000000000000000000000000000008152600401610c6690612ef6565b60405180910390fd5b600360008373ffffffffffffffffffffffffffffffffffffffff1673ffffffffffffffffffffffffffffffffffffffff168152602001908152602001600020549050919050565b610cbe611535565b610cc86000611a8b565b565b600a8054610cd790612bea565b80601f0160208091040260200160405190810160405280929190818152602001828054610d0390612bea565b8015610d505780601f10610d2557610100808354040283529160200191610d50565b820191906000526020600020905b815481529060010190602001808311610d3357829003601f168201915b505050505081565b600080600b541480610d6d5750600b54600754105b610dac576040517f08c379a0000000000000000000000000000000000000000000000000000000008152600401610da390612f62565b60405180910390fd5b600c543414610de7576040517f21e191e200000000000000000000000000000000000000000000000000000000815260040160405180910390fd5b6000600760008154610df890612fb1565b9190508190559050610e0a8382611b51565b80915050919050565b606080606060008060096008600a600b54600c54848054610e3390612bea565b80601f0160208091040260200160405190810160405280929190818152602001828054610e5f90612bea565b8015610eac5780601f10610e8157610100808354040283529160200191610eac565b820191906000526020600020905b815481529060010190602001808311610e8f57829003601f168201915b50505050509450838054610ebf90612bea565b80601f0160208091040260200160405190810160405280929190818152602001828054610eeb90612bea565b8015610f385780601f10610f0d57610100808354040283529160200191610f38565b820191906000526020600020905b815481529060010190602001808311610f1b57829003601f168201915b50505050509350828054610f4b90612bea565b80601f0160208091040260200160405190810160405280929190818152602001828054610f7790612bea565b8015610fc45780601f10610f9957610100808354040283529160200191610fc4565b820191906000526020600020905b815481529060010190602001808311610fa757829003601f168201915b50505050509250945094509450945094509091929394565b60088054610fe990612bea565b80601f016020809104026020016040519081016040528092919081815260200182805461101590612bea565b80156110625780601f1061103757610100808354040283529160200191611062565b820191906000526020600020905b81548152906001019060200180831161104557829003601f168201915b505050505081565b6000600660009054906101000a900473ffffffffffffffffffffffffffffffffffffffff16905090565b6060600180546110a390612bea565b80601f01602080910402602001604051908101604052809291908181526020018280546110cf90612bea565b801561111c5780601f106110f15761010080835404028352916020019161111c565b820191906000526020600020905b8154815290600101906020018083116110ff57829003601f168201915b5050505050905090565b846009908051906020019061113c9291906122c9565b5083600890805190602001906111539291906122c9565b5082600a908051906020019061116a9291906122c9565b5081600b8190555080600c819055505050505050565b61119261118b6115fe565b8383611b6f565b5050565b6111a76111a16115fe565b836116bf565b6111e6576040517f08c379a00000000000000000000000000000000000000000000000000000000081526004016111dd90612db2565b60405180910390fd5b6111f284848484611cdc565b50505050565b606061120382611d38565b611242576040517f08c379a00000000000000000000000000000000000000000000000000000000081526004016112399061306c565b60405180910390fd5b6009805461124f90612bea565b80601f016020809104026020016040519081016040528092919081815260200182805461127b90612bea565b80156112c85780601f1061129d576101008083540402835291602001916112c8565b820191906000526020600020905b8154815290600101906020018083116112ab57829003601f168201915b50505050509050919050565b600980546112e190612bea565b80601f016020809104026020016040519081016040528092919081815260200182805461130d90612bea565b801561135a5780601f1061132f5761010080835404028352916020019161135a565b820191906000526020600020905b81548152906001019060200180831161133d57829003601f168201915b505050505081565b61136a611535565b80600990805190602001906113809291906122c9565b5050565b6000600560008473ffffffffffffffffffffffffffffffffffffffff1673ffffffffffffffffffffffffffffffffffffffff16815260200190815260200160002060008373ffffffffffffffffffffffffffffffffffffffff1673ffffffffffffffffffffffffffffffffffffffff16815260200190815260200160002060009054906101000a900460ff16905092915050565b611420611535565b600073ffffffffffffffffffffffffffffffffffffffff168173ffffffffffffffffffffffffffffffffffffffff161415611490576040517f08c379a0000000000000000000000000000000000000000000000000000000008152600401611487906130fe565b60405180910390fd5b61149981611a8b565b50565b6114a4611535565b60006007600081546114b590612fb1565b91905081905590506114c78282611b51565b5050565b60007f01ffc9a7000000000000000000000000000000000000000000000000000000007bffffffffffffffffffffffffffffffffffffffffffffffffffffffff1916827bffffffffffffffffffffffffffffffffffffffffffffffffffffffff1916149050919050565b61153d6115fe565b73ffffffffffffffffffffffffffffffffffffffff1661155b61106a565b73ffffffffffffffffffffffffffffffffffffffff16146115b1576040517f08c379a00000000000000000000000000000000000000000000000000000000081526004016115a89061316a565b60405180910390fd5b565b6115bc81611d38565b6115fb576040517f08c379a00000000000000000000000000000000000000000000000000000000081526004016115f290612e64565b60405180910390fd5b50565b600033905090565b816004600083815260200190815260200160002060006101000a81548173ffffffffffffffffffffffffffffffffffffffff021916908373ffffffffffffffffffffffffffffffffffffffff160217905550808273ffffffffffffffffffffffffffffffffffffffff1661167983610b71565b73ffffffffffffffffffffffffffffffffffffffff167f8c5be1e5ebec7d5bd14f71427d1e84f3dd0314c0f7b2291e5b200ac8c7c3b92560405160405180910390a45050565b6000806116cb83610b71565b90508073ffffffffffffffffffffffffffffffffffffffff168473ffffffffffffffffffffffffffffffffffffffff16148061170d575061170c8185611384565b5b8061174b57508373ffffffffffffffffffffffffffffffffffffffff16611733846108d8565b73ffffffffffffffffffffffffffffffffffffffff16145b91505092915050565b8273ffffffffffffffffffffffffffffffffffffffff1661177482610b71565b73ffffffffffffffffffffffffffffffffffffffff16146117ca576040517f08c379a00000000000000000000000000000000000000000000000000000000081526004016117c1906131fc565b60405180910390fd5b600073ffffffffffffffffffffffffffffffffffffffff168273ffffffffffffffffffffffffffffffffffffffff16141561183a576040517f08c379a00000000000000000000000000000000000000000000000000000000081526004016118319061328e565b60405180910390fd5b6118478383836001611d79565b8273ffffffffffffffffffffffffffffffffffffffff1661186782610b71565b73ffffffffffffffffffffffffffffffffffffffff16146118bd576040517f08c379a00000000000000000000000000000000000000000000000000000000081526004016118b4906131fc565b60405180910390fd5b6004600082815260200190815260200160002060006101000a81549073ffffffffffffffffffffffffffffffffffffffff02191690556001600360008573ffffffffffffffffffffffffffffffffffffffff1673ffffffffffffffffffffffffffffffffffffffff168152602001908152602001600020600082825403925050819055506001600360008473ffffffffffffffffffffffffffffffffffffffff1673ffffffffffffffffffffffffffffffffffffffff16815260200190815260200160002060008282540192505081905550816002600083815260200190815260200160002060006101000a81548173ffffffffffffffffffffffffffffffffffffffff021916908373ffffffffffffffffffffffffffffffffffffffff160217905550808273ffffffffffffffffffffffffffffffffffffffff168473ffffffffffffffffffffffffffffffffffffffff167fddf252ad1be2c89b69c2b068fc378daa952ba7f163c4a11628f55a4df523b3ef60405160405180910390a4611a498383836001611e9f565b505050565b60006002600083815260200190815260200160002060009054906101000a900473ffffffffffffffffffffffffffffffffffffffff169050919050565b6000600660009054906101000a900473ffffffffffffffffffffffffffffffffffffffff16905081600660006101000a81548173ffffffffffffffffffffffffffffffffffffffff021916908373ffffffffffffffffffffffffffffffffffffffff1602179055508173ffffffffffffffffffffffffffffffffffffffff168173ffffffffffffffffffffffffffffffffffffffff167f8be0079c531659141344cd1fd0a4f28419497f9722a3daafe3b4186f6b6457e060405160405180910390a35050565b611b6b828260405180602001604052806000815250611ea5565b5050565b8173ffffffffffffffffffffffffffffffffffffffff168373ffffffffffffffffffffffffffffffffffffffff161415611bde576040517f08c379a0000000000000000000000000000000000000000000000000000000008152600401611bd5906132fa565b60405180910390fd5b80600560008573ffffffffffffffffffffffffffffffffffffffff1673ffffffffffffffffffffffffffffffffffffffff16815260200190815260200160002060008473ffffffffffffffffffffffffffffffffffffffff1673ffffffffffffffffffffffffffffffffffffffff16815260200190815260200160002060006101000a81548160ff0219169083151502179055508173ffffffffffffffffffffffffffffffffffffffff168373ffffffffffffffffffffffffffffffffffffffff167f17307eab39ab6107e8899845ad3d59bd9653f200f220920489ca2b5937696c3183604051611ccf9190612454565b60405180910390a3505050565b611ce7848484611754565b611cf384848484611f00565b611d32576040517f08c379a0000000000000000000000000000000000000000000000000000000008152600401611d299061338c565b60405180910390fd5b50505050565b60008073ffffffffffffffffffffffffffffffffffffffff16611d5a83611a4e565b73ffffffffffffffffffffffffffffffffffffffff1614159050919050565b6001811115611e9957600073ffffffffffffffffffffffffffffffffffffffff168473ffffffffffffffffffffffffffffffffffffffff1614611e0d5780600360008673ffffffffffffffffffffffffffffffffffffffff1673ffffffffffffffffffffffffffffffffffffffff1681526020019081526020016000206000828254611e0591906133ac565b925050819055505b600073ffffffffffffffffffffffffffffffffffffffff168373ffffffffffffffffffffffffffffffffffffffff1614611e985780600360008573ffffffffffffffffffffffffffffffffffffffff1673ffffffffffffffffffffffffffffffffffffffff1681526020019081526020016000206000828254611e9091906133e0565b925050819055505b5b50505050565b50505050565b611eaf8383612088565b611ebc6000848484611f00565b611efb576040517f08c379a0000000000000000000000000000000000000000000000000000000008152600401611ef29061338c565b60405180910390fd5b505050565b6000611f218473ffffffffffffffffffffffffffffffffffffffff166122a6565b1561207b578373ffffffffffffffffffffffffffffffffffffffff1663150b7a02611f4a6115fe565b8786866040518563ffffffff1660e01b8152600401611f6c949392919061348b565b6020604051808303816000875af1925050508015611fa857506040513d601f19601f82011682018060405250810190611fa591906134ec565b60015b61202b573d8060008114611fd8576040519150601f19603f3d011682016040523d82523d6000602084013e611fdd565b606091505b50600081511415612023576040517f08c379a000000000000000000000000000000000000000000000000000000000815260040161201a9061338c565b60405180910390fd5b805181602001fd5b63150b7a0260e01b7bffffffffffffffffffffffffffffffffffffffffffffffffffffffff1916817bffffffffffffffffffffffffffffffffffffffffffffffffffffffff191614915050612080565b600190505b949350505050565b600073ffffffffffffffffffffffffffffffffffffffff168273ffffffffffffffffffffffffffffffffffffffff1614156120f8576040517f08c379a00000000000000000000000000000000000000000000000000000000081526004016120ef90613565565b60405180910390fd5b61210181611d38565b15612141576040517f08c379a0000000000000000000000000000000000000000000000000000000008152600401612138906135d1565b60405180910390fd5b61214f600083836001611d79565b61215881611d38565b15612198576040517f08c379a000000000000000000000000000000000000000000000000000000000815260040161218f906135d1565b60405180910390fd5b6001600360008473ffffffffffffffffffffffffffffffffffffffff1673ffffffffffffffffffffffffffffffffffffffff16815260200190815260200160002060008282540192505081905550816002600083815260200190815260200160002060006101000a81548173ffffffffffffffffffffffffffffffffffffffff021916908373ffffffffffffffffffffffffffffffffffffffff160217905550808273ffffffffffffffffffffffffffffffffffffffff16600073ffffffffffffffffffffffffffffffffffffffff167fddf252ad1be2c89b69c2b068fc378daa952ba7f163c4a11628f55a4df523b3ef60405160405180910390a46122a2600083836001611e9f565b5050565b6000808273ffffffffffffffffffffffffffffffffffffffff163b119050919050565b8280546122d590612bea565b90600052602060002090601f0160209004810192826122f7576000855561233e565b82601f1061231057805160ff191683800117855561233e565b8280016001018555821561233e579182015b8281111561233d578251825591602001919060010190612322565b5b50905061234b919061234f565b5090565b5b80821115612368576000816000905550600101612350565b5090565b6000819050919050565b61237f8161236c565b82525050565b600060208201905061239a6000830184612376565b92915050565b6000604051905090565b600080fd5b600080fd5b60007fffffffff0000000000000000000000000000000000000000000000000000000082169050919050565b6123e9816123b4565b81146123f457600080fd5b50565b600081359050612406816123e0565b92915050565b600060208284031215612422576124216123aa565b5b6000612430848285016123f7565b91505092915050565b60008115159050919050565b61244e81612439565b82525050565b60006020820190506124696000830184612445565b92915050565b600073ffffffffffffffffffffffffffffffffffffffff82169050919050565b600061249a8261246f565b9050919050565b6124aa8161248f565b81146124b557600080fd5b50565b6000813590506124c7816124a1565b92915050565b6000602082840312156124e3576124e26123aa565b5b60006124f1848285016124b8565b91505092915050565b600081519050919050565b600082825260208201905092915050565b60005b83811015612534578082015181840152602081019050612519565b83811115612543576000848401525b50505050565b6000601f19601f8301169050919050565b6000612565826124fa565b61256f8185612505565b935061257f818560208601612516565b61258881612549565b840191505092915050565b600060208201905081810360008301526125ad818461255a565b905092915050565b6125be8161236c565b81146125c957600080fd5b50565b6000813590506125db816125b5565b92915050565b6000602082840312156125f7576125f66123aa565b5b6000612605848285016125cc565b91505092915050565b6126178161248f565b82525050565b6000602082019050612632600083018461260e565b92915050565b6000806040838503121561264f5761264e6123aa565b5b600061265d858286016124b8565b925050602061266e858286016125cc565b9150509250929050565b600080600060608486031215612691576126906123aa565b5b600061269f868287016124b8565b93505060206126b0868287016124b8565b92505060406126c1868287016125cc565b9150509250925092565b60006126d68261246f565b9050919050565b6126e6816126cb565b81146126f157600080fd5b50565b600081359050612703816126dd565b92915050565b60006020828403121561271f5761271e6123aa565b5b600061272d848285016126f4565b91505092915050565b600060a0820190508181036000830152612750818861255a565b90508181036020830152612764818761255a565b90508181036040830152612778818661255a565b90506127876060830185612376565b6127946080830184612376565b9695505050505050565b600080fd5b600080fd5b7f4e487b7100000000000000000000000000000000000000000000000000000000600052604160045260246000fd5b6127e082612549565b810181811067ffffffffffffffff821117156127ff576127fe6127a8565b5b80604052505050565b60006128126123a0565b905061281e82826127d7565b919050565b600067ffffffffffffffff82111561283e5761283d6127a8565b5b61284782612549565b9050602081019050919050565b82818337600083830152505050565b600061287661287184612823565b612808565b905082815260208101848484011115612892576128916127a3565b5b61289d848285612854565b509392505050565b600082601f8301126128ba576128b961279e565b5b81356128ca848260208601612863565b91505092915050565b600080600080600060a086880312156128ef576128ee6123aa565b5b600086013567ffffffffffffffff81111561290d5761290c6123af565b5b612919888289016128a5565b955050602086013567ffffffffffffffff81111561293a576129396123af565b5b612946888289016128a5565b945050604086013567ffffffffffffffff811115612967576129666123af565b5b612973888289016128a5565b9350506060612984888289016125cc565b9250506080612995888289016125cc565b9150509295509295909350565b6129ab81612439565b81146129b657600080fd5b50565b6000813590506129c8816129a2565b92915050565b600080604083850312156129e5576129e46123aa565b5b60006129f3858286016124b8565b9250506020612a04858286016129b9565b9150509250929050565b600067ffffffffffffffff821115612a2957612a286127a8565b5b612a3282612549565b9050602081019050919050565b6000612a52612a4d84612a0e565b612808565b905082815260208101848484011115612a6e57612a6d6127a3565b5b612a79848285612854565b509392505050565b600082601f830112612a9657612a9561279e565b5b8135612aa6848260208601612a3f565b91505092915050565b60008060008060808587031215612ac957612ac86123aa565b5b6000612ad7878288016124b8565b9450506020612ae8878288016124b8565b9350506040612af9878288016125cc565b925050606085013567ffffffffffffffff811115612b1a57612b196123af565b5b612b2687828801612a81565b91505092959194509250565b600060208284031215612b4857612b476123aa565b5b600082013567ffffffffffffffff811115612b6657612b656123af565b5b612b72848285016128a5565b91505092915050565b60008060408385031215612b9257612b916123aa565b5b6000612ba0858286016124b8565b9250506020612bb1858286016124b8565b9150509250929050565b7f4e487b7100000000000000000000000000000000000000000000000000000000600052602260045260246000fd5b60006002820490506001821680612c0257607f821691505b60208210811415612c1657612c15612bbb565b5b50919050565b7f4552433732313a20617070726f76616c20746f2063757272656e74206f776e6560008201527f7200000000000000000000000000000000000000000000000000000000000000602082015250565b6000612c78602183612505565b9150612c8382612c1c565b604082019050919050565b60006020820190508181036000830152612ca781612c6b565b9050919050565b7f4552433732313a20617070726f76652063616c6c6572206973206e6f7420746f60008201527f6b656e206f776e6572206f7220617070726f76656420666f7220616c6c000000602082015250565b6000612d0a603d83612505565b9150612d1582612cae565b604082019050919050565b60006020820190508181036000830152612d3981612cfd565b9050919050565b7f4552433732313a2063616c6c6572206973206e6f7420746f6b656e206f776e6560008201527f72206f7220617070726f76656400000000000000000000000000000000000000602082015250565b6000612d9c602d83612505565b9150612da782612d40565b604082019050919050565b60006020820190508181036000830152612dcb81612d8f565b9050919050565b600081905092915050565b50565b6000612ded600083612dd2565b9150612df882612ddd565b600082019050919050565b6000612e0e82612de0565b9150819050919050565b7f4552433732313a20696e76616c696420746f6b656e2049440000000000000000600082015250565b6000612e4e601883612505565b9150612e5982612e18565b602082019050919050565b60006020820190508181036000830152612e7d81612e41565b9050919050565b7f4552433732313a2061646472657373207a65726f206973206e6f74206120766160008201527f6c6964206f776e65720000000000000000000000000000000000000000000000602082015250565b6000612ee0602983612505565b9150612eeb82612e84565b604082019050919050565b60006020820190508181036000830152612f0f81612ed3565b9050919050565b7f546f74616c20737570706c7920697320616c7265616479207265616368656400600082015250565b6000612f4c601f83612505565b9150612f5782612f16565b602082019050919050565b60006020820190508181036000830152612f7b81612f3f565b9050919050565b7f4e487b7100000000000000000000000000000000000000000000000000000000600052601160045260246000fd5b6000612fbc8261236c565b91507fffffffffffffffffffffffffffffffffffffffffffffffffffffffffffffffff821415612fef57612fee612f82565b5b600182019050919050565b7f4552433732314d657461646174613a2055524920717565727920666f72206e6f60008201527f6e6578697374656e7420746f6b656e0000000000000000000000000000000000602082015250565b6000613056602f83612505565b915061306182612ffa565b604082019050919050565b6000602082019050818103600083015261308581613049565b9050919050565b7f4f776e61626c653a206e6577206f776e657220697320746865207a65726f206160008201527f6464726573730000000000000000000000000000000000000000000000000000602082015250565b60006130e8602683612505565b91506130f38261308c565b604082019050919050565b60006020820190508181036000830152613117816130db565b9050919050565b7f4f776e61626c653a2063616c6c6572206973206e6f7420746865206f776e6572600082015250565b6000613154602083612505565b915061315f8261311e565b602082019050919050565b6000602082019050818103600083015261318381613147565b9050919050565b7f4552433732313a207472616e736665722066726f6d20696e636f72726563742060008201527f6f776e6572000000000000000000000000000000000000000000000000000000602082015250565b60006131e6602583612505565b91506131f18261318a565b604082019050919050565b60006020820190508181036000830152613215816131d9565b9050919050565b7f4552433732313a207472616e7366657220746f20746865207a65726f2061646460008201527f7265737300000000000000000000000000000000000000000000000000000000602082015250565b6000613278602483612505565b91506132838261321c565b604082019050919050565b600060208201905081810360008301526132a78161326b565b9050919050565b7f4552433732313a20617070726f766520746f2063616c6c657200000000000000600082015250565b60006132e4601983612505565b91506132ef826132ae565b602082019050919050565b60006020820190508181036000830152613313816132d7565b9050919050565b7f4552433732313a207472616e7366657220746f206e6f6e20455243373231526560008201527f63656976657220696d706c656d656e7465720000000000000000000000000000602082015250565b6000613376603283612505565b91506133818261331a565b604082019050919050565b600060208201905081810360008301526133a581613369565b9050919050565b60006133b78261236c565b91506133c28361236c565b9250828210156133d5576133d4612f82565b5b828203905092915050565b60006133eb8261236c565b91506133f68361236c565b9250827fffffffffffffffffffffffffffffffffffffffffffffffffffffffffffffffff0382111561342b5761342a612f82565b5b828201905092915050565b600081519050919050565b600082825260208201905092915050565b600061345d82613436565b6134678185613441565b9350613477818560208601612516565b61348081612549565b840191505092915050565b60006080820190506134a0600083018761260e565b6134ad602083018661260e565b6134ba6040830185612376565b81810360608301526134cc8184613452565b905095945050505050565b6000815190506134e6816123e0565b92915050565b600060208284031215613502576135016123aa565b5b6000613510848285016134d7565b91505092915050565b7f4552433732313a206d696e7420746f20746865207a65726f2061646472657373600082015250565b600061354f602083612505565b915061355a82613519565b602082019050919050565b6000602082019050818103600083015261357e81613542565b9050919050565b7f4552433732313a20746f6b656e20616c7265616479206d696e74656400000000600082015250565b60006135bb601c83612505565b91506135c682613585565b602082019050919050565b600060208201905081810360008301526135ea816135ae565b905091905056fea26469706673582212206f7ce4a3a68cf5dda7f61b96f126006f54541b2eec2ffb5c856ce212e3f53dee64736f6c634300080a0033a264697066735822122003367479a06815f44c85e44ce6264a1165981b1bb1d6f1bdb1d0a6d8b0bcc35f64736f6c634300080a0033",
  "linkReferences": {},
  "deployedLinkReferences": {}
}