{
  "_format": "hh-sol-artifact-1",
  "contractName": "LiveNFT",
  "sourceName": "src/LiveNFT.sol",
  "abi": [
    {
      "inputs": [],
      "stateMutability": "nonpayable",
      "type": "constructor"
    },
    {
      "inputs": [],
      "name": "MintPriceNotPaid",
      "type": "error"
    },
    {
      "inputs": [],
      "name": "WithdrawTransfer",
      "type": "error"
    },
    {
      "anonymous": false,
      "inputs": [
        {
          "indexed": true,
          "internalType": "address",
          "name": "owner",
          "type": "address"
        },
        {
          "indexed": true,
          "internalType": "address",
          "name": "approved",
          "type": "address"
        },
        {
          "indexed": true,
          "internalType": "uint256",
          "name": "tokenId",
          "type": "uint256"
        }
      ],
      "name": "Approval",
      "type": "event"
    },
    {
      "anonymous": false,
      "inputs": [
        {
          "indexed": true,
          "internalType": "address",
          "name": "owner",
          "type": "address"
        },
        {
          "indexed": true,
          "internalType": "address",
          "name": "operator",
          "type": "address"
        },
        {
          "indexed": false,
          "internalType": "bool",
          "name": "approved",
          "type": "bool"
        }
      ],
      "name": "ApprovalForAll",
      "type": "event"
    },
    {
      "anonymous": false,
      "inputs": [
        {
          "indexed": true,
          "internalType": "address",
          "name": "previousOwner",
          "type": "address"
        },
        {
          "indexed": true,
          "internalType": "address",
          "name": "newOwner",
          "type": "address"
        }
      ],
      "name": "OwnershipTransferred",
      "type": "event"
    },
    {
      "anonymous": false,
      "inputs": [
        {
          "indexed": true,
          "internalType": "address",
          "name": "from",
          "type": "address"
        },
        {
          "indexed": true,
          "internalType": "address",
          "name": "to",
          "type": "address"
        },
        {
          "indexed": true,
          "internalType": "uint256",
          "name": "tokenId",
          "type": "uint256"
        }
      ],
      "name": "Transfer",
      "type": "event"
    },
    {
      "inputs": [],
      "name": "LNFTname",
      "outputs": [
        {
          "internalType": "string",
          "name": "",
          "type": "string"
        }
      ],
      "stateMutability": "view",
      "type": "function"
    },
    {
      "inputs": [
        {
          "internalType": "address",
          "name": "_newEmitter",
          "type": "address"
        }
      ],
      "name": "addEmitterAddress",
      "outputs": [],
      "stateMutability": "nonpayable",
      "type": "function"
    },
    {
      "inputs": [
        {
          "internalType": "address",
          "name": "to",
          "type": "address"
        },
        {
          "internalType": "uint256",
          "name": "tokenId",
          "type": "uint256"
        }
      ],
      "name": "approve",
      "outputs": [],
      "stateMutability": "nonpayable",
      "type": "function"
    },
    {
      "inputs": [
        {
          "internalType": "address",
          "name": "owner",
          "type": "address"
        }
      ],
      "name": "balanceOf",
      "outputs": [
        {
          "internalType": "uint256",
          "name": "",
          "type": "uint256"
        }
      ],
      "stateMutability": "view",
      "type": "function"
    },
    {
      "inputs": [],
      "name": "baseTokenURI",
      "outputs": [
        {
          "internalType": "string",
          "name": "",
          "type": "string"
        }
      ],
      "stateMutability": "view",
      "type": "function"
    },
    {
      "inputs": [],
      "name": "currentTokenId",
      "outputs": [
        {
          "internalType": "uint256",
          "name": "",
          "type": "uint256"
        }
      ],
      "stateMutability": "view",
      "type": "function"
    },
    {
      "inputs": [],
      "name": "description",
      "outputs": [
        {
          "internalType": "string",
          "name": "",
          "type": "string"
        }
      ],
      "stateMutability": "view",
      "type": "function"
    },
    {
      "inputs": [
        {
          "internalType": "address",
          "name": "recipient",
          "type": "address"
        }
      ],
      "name": "freeMint",
      "outputs": [],
      "stateMutability": "nonpayable",
      "type": "function"
    },
    {
      "inputs": [
        {
          "internalType": "uint256",
          "name": "tokenId",
          "type": "uint256"
        }
      ],
      "name": "getApproved",
      "outputs": [
        {
          "internalType": "address",
          "name": "",
          "type": "address"
        }
      ],
      "stateMutability": "view",
      "type": "function"
    },
    {
      "inputs": [],
      "name": "getMetadata",
      "outputs": [
        {
          "internalType": "string",
          "name": "",
          "type": "string"
        },
        {
          "internalType": "string",
          "name": "",
          "type": "string"
        },
        {
          "internalType": "string",
          "name": "",
          "type": "string"
        },
        {
          "internalType": "uint256",
          "name": "",
          "type": "uint256"
        },
        {
          "internalType": "uint256",
          "name": "",
          "type": "uint256"
        }
      ],
      "stateMutability": "view",
      "type": "function"
    },
    {
      "inputs": [
        {
          "internalType": "string",
          "name": "_baseTokenURI",
          "type": "string"
        },
        {
          "internalType": "string",
          "name": "_name",
          "type": "string"
        },
        {
          "internalType": "string",
          "name": "_description",
          "type": "string"
        },
        {
          "internalType": "uint256",
          "name": "_totalSupply",
          "type": "uint256"
        },
        {
          "internalType": "uint256",
          "name": "_mintPrice",
          "type": "uint256"
        }
      ],
      "name": "init",
      "outputs": [],
      "stateMutability": "nonpayable",
      "type": "function"
    },
    {
      "inputs": [
        {
          "internalType": "address",
          "name": "owner",
          "type": "address"
        },
        {
          "internalType": "address",
          "name": "operator",
          "type": "address"
        }
      ],
      "name": "isApprovedForAll",
      "outputs": [
        {
          "internalType": "bool",
          "name": "",
          "type": "bool"
        }
      ],
      "stateMutability": "view",
      "type": "function"
    },
    {
      "inputs": [],
      "name": "mintPrice",
      "outputs": [
        {
          "internalType": "uint256",
          "name": "",
          "type": "uint256"
        }
      ],
      "stateMutability": "view",
      "type": "function"
    },
    {
      "inputs": [
        {
          "internalType": "address",
          "name": "recipient",
          "type": "address"
        }
      ],
      "name": "mintTo",
      "outputs": [
        {
          "internalType": "uint256",
          "name": "",
          "type": "uint256"
        }
      ],
      "stateMutability": "payable",
      "type": "function"
    },
    {
      "inputs": [],
      "name": "name",
      "outputs": [
        {
          "internalType": "string",
          "name": "",
          "type": "string"
        }
      ],
      "stateMutability": "view",
      "type": "function"
    },
    {
      "inputs": [],
      "name": "owner",
      "outputs": [
        {
          "internalType": "address",
          "name": "",
          "type": "address"
        }
      ],
      "stateMutability": "view",
      "type": "function"
    },
    {
      "inputs": [
        {
          "internalType": "uint256",
          "name": "tokenId",
          "type": "uint256"
        }
      ],
      "name": "ownerOf",
      "outputs": [
        {
          "internalType": "address",
          "name": "",
          "type": "address"
        }
      ],
      "stateMutability": "view",
      "type": "function"
    },
    {
      "inputs": [],
      "name": "renounceOwnership",
      "outputs": [],
      "stateMutability": "nonpayable",
      "type": "function"
    },
    {
      "inputs": [
        {
          "internalType": "address",
          "name": "from",
          "type": "address"
        },
        {
          "internalType": "address",
          "name": "to",
          "type": "address"
        },
        {
          "internalType": "uint256",
          "name": "tokenId",
          "type": "uint256"
        }
      ],
      "name": "safeTransferFrom",
      "outputs": [],
      "stateMutability": "nonpayable",
      "type": "function"
    },
    {
      "inputs": [
        {
          "internalType": "address",
          "name": "from",
          "type": "address"
        },
        {
          "internalType": "address",
          "name": "to",
          "type": "address"
        },
        {
          "internalType": "uint256",
          "name": "tokenId",
          "type": "uint256"
        },
        {
          "internalType": "bytes",
          "name": "data",
          "type": "bytes"
        }
      ],
      "name": "safeTransferFrom",
      "outputs": [],
      "stateMutability": "nonpayable",
      "type": "function"
    },
    {
      "inputs": [
        {
          "internalType": "address",
          "name": "operator",
          "type": "address"
        },
        {
          "internalType": "bool",
          "name": "approved",
          "type": "bool"
        }
      ],
      "name": "setApprovalForAll",
      "outputs": [],
      "stateMutability": "nonpayable",
      "type": "function"
    },
    {
      "inputs": [
        {
          "internalType": "string",
          "name": "_baseTokenURI",
          "type": "string"
        }
      ],
      "name": "setTokenURI",
      "outputs": [],
      "stateMutability": "nonpayable",
      "type": "function"
    },
    {
      "inputs": [
        {
          "internalType": "bytes4",
          "name": "interfaceId",
          "type": "bytes4"
        }
      ],
      "name": "supportsInterface",
      "outputs": [
        {
          "internalType": "bool",
          "name": "",
          "type": "bool"
        }
      ],
      "stateMutability": "view",
      "type": "function"
    },
    {
      "inputs": [],
      "name": "symbol",
      "outputs": [
        {
          "internalType": "string",
          "name": "",
          "type": "string"
        }
      ],
      "stateMutability": "view",
      "type": "function"
    },
    {
      "inputs": [
        {
          "internalType": "uint256",
          "name": "tokenId",
          "type": "uint256"
        }
      ],
      "name": "tokenURI",
      "outputs": [
        {
          "internalType": "string",
          "name": "",
          "type": "string"
        }
      ],
      "stateMutability": "view",
      "type": "function"
    },
    {
      "inputs": [],
      "name": "totalSupply",
      "outputs": [
        {
          "internalType": "uint256",
          "name": "",
          "type": "uint256"
        }
      ],
      "stateMutability": "view",
      "type": "function"
    },
    {
      "inputs": [
        {
          "internalType": "address",
          "name": "from",
          "type": "address"
        },
        {
          "internalType": "address",
          "name": "to",
          "type": "address"
        },
        {
          "internalType": "uint256",
          "name": "tokenId",
          "type": "uint256"
        }
      ],
      "name": "transferFrom",
      "outputs": [],
      "stateMutability": "nonpayable",
      "type": "function"
    },
    {
      "inputs": [
        {
          "internalType": "address",
          "name": "newOwner",
          "type": "address"
        }
      ],
      "name": "transferOwnership",
      "outputs": [],
      "stateMutability": "nonpayable",
      "type": "function"
    },
    {
      "inputs": [
        {
          "internalType": "address payable",
          "name": "payee",
          "type": "address"
        }
      ],
      "name": "withdrawPayments",
      "outputs": [],
      "stateMutability": "nonpayable",
      "type": "function"
    }
  ],
  "bytecode": "0x60806040523480156200001157600080fd5b506040518060400160405280600781526020017f4c6976654e4654000000000000000000000000000000000000000000000000008152506040518060400160405280600481526020017f4c4e465400000000000000000000000000000000000000000000000000000000815250816000908051906020019062000096929190620001a6565b508060019080519060200190620000af929190620001a6565b505050620000d2620000c6620000d860201b60201c565b620000e060201b60201c565b620002bb565b600033905090565b6000600660009054906101000a900473ffffffffffffffffffffffffffffffffffffffff16905081600660006101000a81548173ffffffffffffffffffffffffffffffffffffffff021916908373ffffffffffffffffffffffffffffffffffffffff1602179055508173ffffffffffffffffffffffffffffffffffffffff168173ffffffffffffffffffffffffffffffffffffffff167f8be0079c531659141344cd1fd0a4f28419497f9722a3daafe3b4186f6b6457e060405160405180910390a35050565b828054620001b49062000285565b90600052602060002090601f016020900481019282620001d8576000855562000224565b82601f10620001f357805160ff191683800117855562000224565b8280016001018555821562000224579182015b828111156200022357825182559160200191906001019062000206565b5b50905062000233919062000237565b5090565b5b808211156200025257600081600090555060010162000238565b5090565b7f4e487b7100000000000000000000000000000000000000000000000000000000600052602260045260246000fd5b600060028204905060018216806200029e57607f821691505b60208210811415620002b557620002b462000256565b5b50919050565b61356980620002cb6000396000f3fe6080604052600436106101c15760003560e01c80637284e416116100f7578063a22cb46511610095578063e0df5b6f11610064578063e0df5b6f14610638578063e985e9c514610661578063f2fde38b1461069e578063fa07ce1d146106c7576101c1565b8063a22cb4651461057e578063b88d4fde146105a7578063c87b56dd146105d0578063d547cfb71461060d576101c1565b80638741f6b6116100d15780638741f6b6146104d45780638da5cb5b146104ff57806395d89b411461052a578063a13a16dc14610555576101c1565b80637284e4161461044a578063755edd17146104755780637a5b4f59146104a5576101c1565b806323b872dd116101645780636352211e1161013e5780636352211e1461038e5780636817c76c146103cb57806370a08231146103f6578063715018a614610433576101c1565b806323b872dd1461031357806331b3eb941461033c57806342842e0e14610365576101c1565b806306fdde03116101a057806306fdde0314610257578063081812fc14610282578063095ea7b3146102bf57806318160ddd146102e8576101c1565b80629a9b7b146101c657806301ffc9a7146101f157806304da18091461022e575b600080fd5b3480156101d257600080fd5b506101db6106f0565b6040516101e89190612333565b60405180910390f35b3480156101fd57600080fd5b50610218600480360381019061021391906123ba565b6106f6565b6040516102259190612402565b60405180910390f35b34801561023a57600080fd5b506102556004803603810190610250919061247b565b6107d8565b005b34801561026357600080fd5b5061026c610846565b6040516102799190612541565b60405180910390f35b34801561028e57600080fd5b506102a960048036038101906102a4919061258f565b6108d8565b6040516102b691906125cb565b60405180910390f35b3480156102cb57600080fd5b506102e660048036038101906102e191906125e6565b61091e565b005b3480156102f457600080fd5b506102fd610a36565b60405161030a9190612333565b60405180910390f35b34801561031f57600080fd5b5061033a60048036038101906103359190612626565b610a3c565b005b34801561034857600080fd5b50610363600480360381019061035e91906126b7565b610a9c565b005b34801561037157600080fd5b5061038c60048036038101906103879190612626565b610b51565b005b34801561039a57600080fd5b506103b560048036038101906103b0919061258f565b610b71565b6040516103c291906125cb565b60405180910390f35b3480156103d757600080fd5b506103e0610bf8565b6040516103ed9190612333565b60405180910390f35b34801561040257600080fd5b5061041d6004803603810190610418919061247b565b610bfe565b60405161042a9190612333565b60405180910390f35b34801561043f57600080fd5b50610448610cb6565b005b34801561045657600080fd5b5061045f610cca565b60405161046c9190612541565b60405180910390f35b61048f600480360381019061048a919061247b565b610d58565b60405161049c9190612333565b60405180910390f35b3480156104b157600080fd5b506104ba610dc1565b6040516104cb9594939291906126e4565b60405180910390f35b3480156104e057600080fd5b506104e9610f8a565b6040516104f69190612541565b60405180910390f35b34801561050b57600080fd5b50610514611018565b60405161052191906125cb565b60405180910390f35b34801561053657600080fd5b5061053f611042565b60405161054c9190612541565b60405180910390f35b34801561056157600080fd5b5061057c60048036038101906105779190612881565b6110d4565b005b34801561058a57600080fd5b506105a560048036038101906105a0919061297c565b61112e565b005b3480156105b357600080fd5b506105ce60048036038101906105c99190612a5d565b611144565b005b3480156105dc57600080fd5b506105f760048036038101906105f2919061258f565b6111a6565b6040516106049190612541565b60405180910390f35b34801561061957600080fd5b50610622611282565b60405161062f9190612541565b60405180910390f35b34801561064457600080fd5b5061065f600480360381019061065a9190612ae0565b611310565b005b34801561066d57600080fd5b5061068860048036038101906106839190612b29565b611332565b6040516106959190612402565b60405180910390f35b3480156106aa57600080fd5b506106c560048036038101906106c0919061247b565b6113c6565b005b3480156106d357600080fd5b506106ee60048036038101906106e9919061247b565b61144a565b005b60075481565b60007f80ac58cd000000000000000000000000000000000000000000000000000000007bffffffffffffffffffffffffffffffffffffffffffffffffffffffff1916827bffffffffffffffffffffffffffffffffffffffffffffffffffffffff191614806107c157507f5b5e139f000000000000000000000000000000000000000000000000000000007bffffffffffffffffffffffffffffffffffffffffffffffffffffffff1916827bffffffffffffffffffffffffffffffffffffffffffffffffffffffff1916145b806107d157506107d082611479565b5b9050919050565b6107e06114e3565b600d819080600181540180825580915050600190039060005260206000200160009091909190916101000a81548173ffffffffffffffffffffffffffffffffffffffff021916908373ffffffffffffffffffffffffffffffffffffffff16021790555050565b60606008805461085590612b98565b80601f016020809104026020016040519081016040528092919081815260200182805461088190612b98565b80156108ce5780601f106108a3576101008083540402835291602001916108ce565b820191906000526020600020905b8154815290600101906020018083116108b157829003601f168201915b5050505050905090565b60006108e382611561565b6004600083815260200190815260200160002060009054906101000a900473ffffffffffffffffffffffffffffffffffffffff169050919050565b600061092982610b71565b90508073ffffffffffffffffffffffffffffffffffffffff168373ffffffffffffffffffffffffffffffffffffffff16141561099a576040517f08c379a000000000000000000000000000000000000000000000000000000000815260040161099190612c3c565b60405180910390fd5b8073ffffffffffffffffffffffffffffffffffffffff166109b96115ac565b73ffffffffffffffffffffffffffffffffffffffff1614806109e857506109e7816109e26115ac565b611332565b5b610a27576040517f08c379a0000000000000000000000000000000000000000000000000000000008152600401610a1e90612cce565b60405180910390fd5b610a3183836115b4565b505050565b600b5481565b610a4d610a476115ac565b8261166d565b610a8c576040517f08c379a0000000000000000000000000000000000000000000000000000000008152600401610a8390612d60565b60405180910390fd5b610a97838383611702565b505050565b610aa46114e3565b600047905060008273ffffffffffffffffffffffffffffffffffffffff1682604051610acf90612db1565b60006040518083038185875af1925050503d8060008114610b0c576040519150601f19603f3d011682016040523d82523d6000602084013e610b11565b606091505b5050905080610b4c576040517fd23a9e8900000000000000000000000000000000000000000000000000000000815260040160405180910390fd5b505050565b610b6c83838360405180602001604052806000815250611144565b505050565b600080610b7d836119fc565b9050600073ffffffffffffffffffffffffffffffffffffffff168173ffffffffffffffffffffffffffffffffffffffff161415610bef576040517f08c379a0000000000000000000000000000000000000000000000000000000008152600401610be690612e12565b60405180910390fd5b80915050919050565b600c5481565b60008073ffffffffffffffffffffffffffffffffffffffff168273ffffffffffffffffffffffffffffffffffffffff161415610c6f576040517f08c379a0000000000000000000000000000000000000000000000000000000008152600401610c6690612ea4565b60405180910390fd5b600360008373ffffffffffffffffffffffffffffffffffffffff1673ffffffffffffffffffffffffffffffffffffffff168152602001908152602001600020549050919050565b610cbe6114e3565b610cc86000611a39565b565b600a8054610cd790612b98565b80601f0160208091040260200160405190810160405280929190818152602001828054610d0390612b98565b8015610d505780601f10610d2557610100808354040283529160200191610d50565b820191906000526020600020905b815481529060010190602001808311610d3357829003601f168201915b505050505081565b6000600c543414610d95576040517f21e191e200000000000000000000000000000000000000000000000000000000815260040160405180910390fd5b6000600760008154610da690612ef3565b9190508190559050610db88382611aff565b80915050919050565b606080606060008060096008600a600b54600c54848054610de190612b98565b80601f0160208091040260200160405190810160405280929190818152602001828054610e0d90612b98565b8015610e5a5780601f10610e2f57610100808354040283529160200191610e5a565b820191906000526020600020905b815481529060010190602001808311610e3d57829003601f168201915b50505050509450838054610e6d90612b98565b80601f0160208091040260200160405190810160405280929190818152602001828054610e9990612b98565b8015610ee65780601f10610ebb57610100808354040283529160200191610ee6565b820191906000526020600020905b815481529060010190602001808311610ec957829003601f168201915b50505050509350828054610ef990612b98565b80601f0160208091040260200160405190810160405280929190818152602001828054610f2590612b98565b8015610f725780601f10610f4757610100808354040283529160200191610f72565b820191906000526020600020905b815481529060010190602001808311610f5557829003601f168201915b50505050509250945094509450945094509091929394565b60088054610f9790612b98565b80601f0160208091040260200160405190810160405280929190818152602001828054610fc390612b98565b80156110105780601f10610fe557610100808354040283529160200191611010565b820191906000526020600020905b815481529060010190602001808311610ff357829003601f168201915b505050505081565b6000600660009054906101000a900473ffffffffffffffffffffffffffffffffffffffff16905090565b60606001805461105190612b98565b80601f016020809104026020016040519081016040528092919081815260200182805461107d90612b98565b80156110ca5780601f1061109f576101008083540402835291602001916110ca565b820191906000526020600020905b8154815290600101906020018083116110ad57829003601f168201915b5050505050905090565b84600990805190602001906110ea929190612277565b508360089080519060200190611101929190612277565b5082600a9080519060200190611118929190612277565b5081600b8190555080600c819055505050505050565b6111406111396115ac565b8383611b1d565b5050565b61115561114f6115ac565b8361166d565b611194576040517f08c379a000000000000000000000000000000000000000000000000000000000815260040161118b90612d60565b60405180910390fd5b6111a084848484611c8a565b50505050565b60606111b182611ce6565b6111f0576040517f08c379a00000000000000000000000000000000000000000000000000000000081526004016111e790612fae565b60405180910390fd5b600980546111fd90612b98565b80601f016020809104026020016040519081016040528092919081815260200182805461122990612b98565b80156112765780601f1061124b57610100808354040283529160200191611276565b820191906000526020600020905b81548152906001019060200180831161125957829003601f168201915b50505050509050919050565b6009805461128f90612b98565b80601f01602080910402602001604051908101604052809291908181526020018280546112bb90612b98565b80156113085780601f106112dd57610100808354040283529160200191611308565b820191906000526020600020905b8154815290600101906020018083116112eb57829003601f168201915b505050505081565b6113186114e3565b806009908051906020019061132e929190612277565b5050565b6000600560008473ffffffffffffffffffffffffffffffffffffffff1673ffffffffffffffffffffffffffffffffffffffff16815260200190815260200160002060008373ffffffffffffffffffffffffffffffffffffffff1673ffffffffffffffffffffffffffffffffffffffff16815260200190815260200160002060009054906101000a900460ff16905092915050565b6113ce6114e3565b600073ffffffffffffffffffffffffffffffffffffffff168173ffffffffffffffffffffffffffffffffffffffff16141561143e576040517f08c379a000000000000000000000000000000000000000000000000000000000815260040161143590613040565b60405180910390fd5b61144781611a39565b50565b6114526114e3565b600060076000815461146390612ef3565b91905081905590506114758282611aff565b5050565b60007f01ffc9a7000000000000000000000000000000000000000000000000000000007bffffffffffffffffffffffffffffffffffffffffffffffffffffffff1916827bffffffffffffffffffffffffffffffffffffffffffffffffffffffff1916149050919050565b6114eb6115ac565b73ffffffffffffffffffffffffffffffffffffffff16611509611018565b73ffffffffffffffffffffffffffffffffffffffff161461155f576040517f08c379a0000000000000000000000000000000000000000000000000000000008152600401611556906130ac565b60405180910390fd5b565b61156a81611ce6565b6115a9576040517f08c379a00000000000000000000000000000000000000000000000000000000081526004016115a090612e12565b60405180910390fd5b50565b600033905090565b816004600083815260200190815260200160002060006101000a81548173ffffffffffffffffffffffffffffffffffffffff021916908373ffffffffffffffffffffffffffffffffffffffff160217905550808273ffffffffffffffffffffffffffffffffffffffff1661162783610b71565b73ffffffffffffffffffffffffffffffffffffffff167f8c5be1e5ebec7d5bd14f71427d1e84f3dd0314c0f7b2291e5b200ac8c7c3b92560405160405180910390a45050565b60008061167983610b71565b90508073ffffffffffffffffffffffffffffffffffffffff168473ffffffffffffffffffffffffffffffffffffffff1614806116bb57506116ba8185611332565b5b806116f957508373ffffffffffffffffffffffffffffffffffffffff166116e1846108d8565b73ffffffffffffffffffffffffffffffffffffffff16145b91505092915050565b8273ffffffffffffffffffffffffffffffffffffffff1661172282610b71565b73ffffffffffffffffffffffffffffffffffffffff1614611778576040517f08c379a000000000000000000000000000000000000000000000000000000000815260040161176f9061313e565b60405180910390fd5b600073ffffffffffffffffffffffffffffffffffffffff168273ffffffffffffffffffffffffffffffffffffffff1614156117e8576040517f08c379a00000000000000000000000000000000000000000000000000000000081526004016117df906131d0565b60405180910390fd5b6117f58383836001611d27565b8273ffffffffffffffffffffffffffffffffffffffff1661181582610b71565b73ffffffffffffffffffffffffffffffffffffffff161461186b576040517f08c379a00000000000000000000000000000000000000000000000000000000081526004016118629061313e565b60405180910390fd5b6004600082815260200190815260200160002060006101000a81549073ffffffffffffffffffffffffffffffffffffffff02191690556001600360008573ffffffffffffffffffffffffffffffffffffffff1673ffffffffffffffffffffffffffffffffffffffff168152602001908152602001600020600082825403925050819055506001600360008473ffffffffffffffffffffffffffffffffffffffff1673ffffffffffffffffffffffffffffffffffffffff16815260200190815260200160002060008282540192505081905550816002600083815260200190815260200160002060006101000a81548173ffffffffffffffffffffffffffffffffffffffff021916908373ffffffffffffffffffffffffffffffffffffffff160217905550808273ffffffffffffffffffffffffffffffffffffffff168473ffffffffffffffffffffffffffffffffffffffff167fddf252ad1be2c89b69c2b068fc378daa952ba7f163c4a11628f55a4df523b3ef60405160405180910390a46119f78383836001611e4d565b505050565b60006002600083815260200190815260200160002060009054906101000a900473ffffffffffffffffffffffffffffffffffffffff169050919050565b6000600660009054906101000a900473ffffffffffffffffffffffffffffffffffffffff16905081600660006101000a81548173ffffffffffffffffffffffffffffffffffffffff021916908373ffffffffffffffffffffffffffffffffffffffff1602179055508173ffffffffffffffffffffffffffffffffffffffff168173ffffffffffffffffffffffffffffffffffffffff167f8be0079c531659141344cd1fd0a4f28419497f9722a3daafe3b4186f6b6457e060405160405180910390a35050565b611b19828260405180602001604052806000815250611e53565b5050565b8173ffffffffffffffffffffffffffffffffffffffff168373ffffffffffffffffffffffffffffffffffffffff161415611b8c576040517f08c379a0000000000000000000000000000000000000000000000000000000008152600401611b839061323c565b60405180910390fd5b80600560008573ffffffffffffffffffffffffffffffffffffffff1673ffffffffffffffffffffffffffffffffffffffff16815260200190815260200160002060008473ffffffffffffffffffffffffffffffffffffffff1673ffffffffffffffffffffffffffffffffffffffff16815260200190815260200160002060006101000a81548160ff0219169083151502179055508173ffffffffffffffffffffffffffffffffffffffff168373ffffffffffffffffffffffffffffffffffffffff167f17307eab39ab6107e8899845ad3d59bd9653f200f220920489ca2b5937696c3183604051611c7d9190612402565b60405180910390a3505050565b611c95848484611702565b611ca184848484611eae565b611ce0576040517f08c379a0000000000000000000000000000000000000000000000000000000008152600401611cd7906132ce565b60405180910390fd5b50505050565b60008073ffffffffffffffffffffffffffffffffffffffff16611d08836119fc565b73ffffffffffffffffffffffffffffffffffffffff1614159050919050565b6001811115611e4757600073ffffffffffffffffffffffffffffffffffffffff168473ffffffffffffffffffffffffffffffffffffffff1614611dbb5780600360008673ffffffffffffffffffffffffffffffffffffffff1673ffffffffffffffffffffffffffffffffffffffff1681526020019081526020016000206000828254611db391906132ee565b925050819055505b600073ffffffffffffffffffffffffffffffffffffffff168373ffffffffffffffffffffffffffffffffffffffff1614611e465780600360008573ffffffffffffffffffffffffffffffffffffffff1673ffffffffffffffffffffffffffffffffffffffff1681526020019081526020016000206000828254611e3e9190613322565b925050819055505b5b50505050565b50505050565b611e5d8383612036565b611e6a6000848484611eae565b611ea9576040517f08c379a0000000000000000000000000000000000000000000000000000000008152600401611ea0906132ce565b60405180910390fd5b505050565b6000611ecf8473ffffffffffffffffffffffffffffffffffffffff16612254565b15612029578373ffffffffffffffffffffffffffffffffffffffff1663150b7a02611ef86115ac565b8786866040518563ffffffff1660e01b8152600401611f1a94939291906133cd565b6020604051808303816000875af1925050508015611f5657506040513d601f19601f82011682018060405250810190611f53919061342e565b60015b611fd9573d8060008114611f86576040519150601f19603f3d011682016040523d82523d6000602084013e611f8b565b606091505b50600081511415611fd1576040517f08c379a0000000000000000000000000000000000000000000000000000000008152600401611fc8906132ce565b60405180910390fd5b805181602001fd5b63150b7a0260e01b7bffffffffffffffffffffffffffffffffffffffffffffffffffffffff1916817bffffffffffffffffffffffffffffffffffffffffffffffffffffffff19161491505061202e565b600190505b949350505050565b600073ffffffffffffffffffffffffffffffffffffffff168273ffffffffffffffffffffffffffffffffffffffff1614156120a6576040517f08c379a000000000000000000000000000000000000000000000000000000000815260040161209d906134a7565b60405180910390fd5b6120af81611ce6565b156120ef576040517f08c379a00000000000000000000000000000000000000000000000000000000081526004016120e690613513565b60405180910390fd5b6120fd600083836001611d27565b61210681611ce6565b15612146576040517f08c379a000000000000000000000000000000000000000000000000000000000815260040161213d90613513565b60405180910390fd5b6001600360008473ffffffffffffffffffffffffffffffffffffffff1673ffffffffffffffffffffffffffffffffffffffff16815260200190815260200160002060008282540192505081905550816002600083815260200190815260200160002060006101000a81548173ffffffffffffffffffffffffffffffffffffffff021916908373ffffffffffffffffffffffffffffffffffffffff160217905550808273ffffffffffffffffffffffffffffffffffffffff16600073ffffffffffffffffffffffffffffffffffffffff167fddf252ad1be2c89b69c2b068fc378daa952ba7f163c4a11628f55a4df523b3ef60405160405180910390a4612250600083836001611e4d565b5050565b6000808273ffffffffffffffffffffffffffffffffffffffff163b119050919050565b82805461228390612b98565b90600052602060002090601f0160209004810192826122a557600085556122ec565b82601f106122be57805160ff19168380011785556122ec565b828001600101855582156122ec579182015b828111156122eb5782518255916020019190600101906122d0565b5b5090506122f991906122fd565b5090565b5b808211156123165760008160009055506001016122fe565b5090565b6000819050919050565b61232d8161231a565b82525050565b60006020820190506123486000830184612324565b92915050565b6000604051905090565b600080fd5b600080fd5b60007fffffffff0000000000000000000000000000000000000000000000000000000082169050919050565b61239781612362565b81146123a257600080fd5b50565b6000813590506123b48161238e565b92915050565b6000602082840312156123d0576123cf612358565b5b60006123de848285016123a5565b91505092915050565b60008115159050919050565b6123fc816123e7565b82525050565b600060208201905061241760008301846123f3565b92915050565b600073ffffffffffffffffffffffffffffffffffffffff82169050919050565b60006124488261241d565b9050919050565b6124588161243d565b811461246357600080fd5b50565b6000813590506124758161244f565b92915050565b60006020828403121561249157612490612358565b5b600061249f84828501612466565b91505092915050565b600081519050919050565b600082825260208201905092915050565b60005b838110156124e25780820151818401526020810190506124c7565b838111156124f1576000848401525b50505050565b6000601f19601f8301169050919050565b6000612513826124a8565b61251d81856124b3565b935061252d8185602086016124c4565b612536816124f7565b840191505092915050565b6000602082019050818103600083015261255b8184612508565b905092915050565b61256c8161231a565b811461257757600080fd5b50565b60008135905061258981612563565b92915050565b6000602082840312156125a5576125a4612358565b5b60006125b38482850161257a565b91505092915050565b6125c58161243d565b82525050565b60006020820190506125e060008301846125bc565b92915050565b600080604083850312156125fd576125fc612358565b5b600061260b85828601612466565b925050602061261c8582860161257a565b9150509250929050565b60008060006060848603121561263f5761263e612358565b5b600061264d86828701612466565b935050602061265e86828701612466565b925050604061266f8682870161257a565b9150509250925092565b60006126848261241d565b9050919050565b61269481612679565b811461269f57600080fd5b50565b6000813590506126b18161268b565b92915050565b6000602082840312156126cd576126cc612358565b5b60006126db848285016126a2565b91505092915050565b600060a08201905081810360008301526126fe8188612508565b905081810360208301526127128187612508565b905081810360408301526127268186612508565b90506127356060830185612324565b6127426080830184612324565b9695505050505050565b600080fd5b600080fd5b7f4e487b7100000000000000000000000000000000000000000000000000000000600052604160045260246000fd5b61278e826124f7565b810181811067ffffffffffffffff821117156127ad576127ac612756565b5b80604052505050565b60006127c061234e565b90506127cc8282612785565b919050565b600067ffffffffffffffff8211156127ec576127eb612756565b5b6127f5826124f7565b9050602081019050919050565b82818337600083830152505050565b600061282461281f846127d1565b6127b6565b9050828152602081018484840111156128405761283f612751565b5b61284b848285612802565b509392505050565b600082601f8301126128685761286761274c565b5b8135612878848260208601612811565b91505092915050565b600080600080600060a0868803121561289d5761289c612358565b5b600086013567ffffffffffffffff8111156128bb576128ba61235d565b5b6128c788828901612853565b955050602086013567ffffffffffffffff8111156128e8576128e761235d565b5b6128f488828901612853565b945050604086013567ffffffffffffffff8111156129155761291461235d565b5b61292188828901612853565b93505060606129328882890161257a565b92505060806129438882890161257a565b9150509295509295909350565b612959816123e7565b811461296457600080fd5b50565b60008135905061297681612950565b92915050565b6000806040838503121561299357612992612358565b5b60006129a185828601612466565b92505060206129b285828601612967565b9150509250929050565b600067ffffffffffffffff8211156129d7576129d6612756565b5b6129e0826124f7565b9050602081019050919050565b6000612a006129fb846129bc565b6127b6565b905082815260208101848484011115612a1c57612a1b612751565b5b612a27848285612802565b509392505050565b600082601f830112612a4457612a4361274c565b5b8135612a548482602086016129ed565b91505092915050565b60008060008060808587031215612a7757612a76612358565b5b6000612a8587828801612466565b9450506020612a9687828801612466565b9350506040612aa78782880161257a565b925050606085013567ffffffffffffffff811115612ac857612ac761235d565b5b612ad487828801612a2f565b91505092959194509250565b600060208284031215612af657612af5612358565b5b600082013567ffffffffffffffff811115612b1457612b1361235d565b5b612b2084828501612853565b91505092915050565b60008060408385031215612b4057612b3f612358565b5b6000612b4e85828601612466565b9250506020612b5f85828601612466565b9150509250929050565b7f4e487b7100000000000000000000000000000000000000000000000000000000600052602260045260246000fd5b60006002820490506001821680612bb057607f821691505b60208210811415612bc457612bc3612b69565b5b50919050565b7f4552433732313a20617070726f76616c20746f2063757272656e74206f776e6560008201527f7200000000000000000000000000000000000000000000000000000000000000602082015250565b6000612c266021836124b3565b9150612c3182612bca565b604082019050919050565b60006020820190508181036000830152612c5581612c19565b9050919050565b7f4552433732313a20617070726f76652063616c6c6572206973206e6f7420746f60008201527f6b656e206f776e6572206f7220617070726f76656420666f7220616c6c000000602082015250565b6000612cb8603d836124b3565b9150612cc382612c5c565b604082019050919050565b60006020820190508181036000830152612ce781612cab565b9050919050565b7f4552433732313a2063616c6c6572206973206e6f7420746f6b656e206f776e6560008201527f72206f7220617070726f76656400000000000000000000000000000000000000602082015250565b6000612d4a602d836124b3565b9150612d5582612cee565b604082019050919050565b60006020820190508181036000830152612d7981612d3d565b9050919050565b600081905092915050565b50565b6000612d9b600083612d80565b9150612da682612d8b565b600082019050919050565b6000612dbc82612d8e565b9150819050919050565b7f4552433732313a20696e76616c696420746f6b656e2049440000000000000000600082015250565b6000612dfc6018836124b3565b9150612e0782612dc6565b602082019050919050565b60006020820190508181036000830152612e2b81612def565b9050919050565b7f4552433732313a2061646472657373207a65726f206973206e6f74206120766160008201527f6c6964206f776e65720000000000000000000000000000000000000000000000602082015250565b6000612e8e6029836124b3565b9150612e9982612e32565b604082019050919050565b60006020820190508181036000830152612ebd81612e81565b9050919050565b7f4e487b7100000000000000000000000000000000000000000000000000000000600052601160045260246000fd5b6000612efe8261231a565b91507fffffffffffffffffffffffffffffffffffffffffffffffffffffffffffffffff821415612f3157612f30612ec4565b5b600182019050919050565b7f4552433732314d657461646174613a2055524920717565727920666f72206e6f60008201527f6e6578697374656e7420746f6b656e0000000000000000000000000000000000602082015250565b6000612f98602f836124b3565b9150612fa382612f3c565b604082019050919050565b60006020820190508181036000830152612fc781612f8b565b9050919050565b7f4f776e61626c653a206e6577206f776e657220697320746865207a65726f206160008201527f6464726573730000000000000000000000000000000000000000000000000000602082015250565b600061302a6026836124b3565b915061303582612fce565b604082019050919050565b600060208201905081810360008301526130598161301d565b9050919050565b7f4f776e61626c653a2063616c6c6572206973206e6f7420746865206f776e6572600082015250565b60006130966020836124b3565b91506130a182613060565b602082019050919050565b600060208201905081810360008301526130c581613089565b9050919050565b7f4552433732313a207472616e736665722066726f6d20696e636f72726563742060008201527f6f776e6572000000000000000000000000000000000000000000000000000000602082015250565b60006131286025836124b3565b9150613133826130cc565b604082019050919050565b600060208201905081810360008301526131578161311b565b9050919050565b7f4552433732313a207472616e7366657220746f20746865207a65726f2061646460008201527f7265737300000000000000000000000000000000000000000000000000000000602082015250565b60006131ba6024836124b3565b91506131c58261315e565b604082019050919050565b600060208201905081810360008301526131e9816131ad565b9050919050565b7f4552433732313a20617070726f766520746f2063616c6c657200000000000000600082015250565b60006132266019836124b3565b9150613231826131f0565b602082019050919050565b6000602082019050818103600083015261325581613219565b9050919050565b7f4552433732313a207472616e7366657220746f206e6f6e20455243373231526560008201527f63656976657220696d706c656d656e7465720000000000000000000000000000602082015250565b60006132b86032836124b3565b91506132c38261325c565b604082019050919050565b600060208201905081810360008301526132e7816132ab565b9050919050565b60006132f98261231a565b91506133048361231a565b92508282101561331757613316612ec4565b5b828203905092915050565b600061332d8261231a565b91506133388361231a565b9250827fffffffffffffffffffffffffffffffffffffffffffffffffffffffffffffffff0382111561336d5761336c612ec4565b5b828201905092915050565b600081519050919050565b600082825260208201905092915050565b600061339f82613378565b6133a98185613383565b93506133b98185602086016124c4565b6133c2816124f7565b840191505092915050565b60006080820190506133e260008301876125bc565b6133ef60208301866125bc565b6133fc6040830185612324565b818103606083015261340e8184613394565b905095945050505050565b6000815190506134288161238e565b92915050565b60006020828403121561344457613443612358565b5b600061345284828501613419565b91505092915050565b7f4552433732313a206d696e7420746f20746865207a65726f2061646472657373600082015250565b60006134916020836124b3565b915061349c8261345b565b602082019050919050565b600060208201905081810360008301526134c081613484565b9050919050565b7f4552433732313a20746f6b656e20616c7265616479206d696e74656400000000600082015250565b60006134fd601c836124b3565b9150613508826134c7565b602082019050919050565b6000602082019050818103600083015261352c816134f0565b905091905056fea2646970667358221220d65027b277fafb8d1ba40eb9cf5bb77eb996f66d0bbe23b6d3597dbc88aa9c8264736f6c634300080a0033",
  "linkReferences": {},
  "deployedLinkReferences": {}
}