{
  "_format": "hh-sol-artifact-1",
  "contractName": "LiveNFT",
  "sourceName": "src/LiveNFT.sol",
  "abi": [
    {
      "inputs": [],
      "stateMutability": "nonpayable",
      "type": "constructor"
    },
    {
      "inputs": [],
      "name": "MintPriceNotPaid",
      "type": "error"
    },
    {
      "inputs": [],
      "name": "NonExistentTokenURI",
      "type": "error"
    },
    {
      "inputs": [],
      "name": "WithdrawTransfer",
      "type": "error"
    },
    {
      "anonymous": false,
      "inputs": [
        {
          "indexed": true,
          "internalType": "address",
          "name": "owner",
          "type": "address"
        },
        {
          "indexed": true,
          "internalType": "address",
          "name": "approved",
          "type": "address"
        },
        {
          "indexed": true,
          "internalType": "uint256",
          "name": "tokenId",
          "type": "uint256"
        }
      ],
      "name": "Approval",
      "type": "event"
    },
    {
      "anonymous": false,
      "inputs": [
        {
          "indexed": true,
          "internalType": "address",
          "name": "owner",
          "type": "address"
        },
        {
          "indexed": true,
          "internalType": "address",
          "name": "operator",
          "type": "address"
        },
        {
          "indexed": false,
          "internalType": "bool",
          "name": "approved",
          "type": "bool"
        }
      ],
      "name": "ApprovalForAll",
      "type": "event"
    },
    {
      "anonymous": false,
      "inputs": [
        {
          "indexed": true,
          "internalType": "address",
          "name": "previousOwner",
          "type": "address"
        },
        {
          "indexed": true,
          "internalType": "address",
          "name": "newOwner",
          "type": "address"
        }
      ],
      "name": "OwnershipTransferred",
      "type": "event"
    },
    {
      "anonymous": false,
      "inputs": [
        {
          "indexed": true,
          "internalType": "address",
          "name": "from",
          "type": "address"
        },
        {
          "indexed": true,
          "internalType": "address",
          "name": "to",
          "type": "address"
        },
        {
          "indexed": true,
          "internalType": "uint256",
          "name": "tokenId",
          "type": "uint256"
        }
      ],
      "name": "Transfer",
      "type": "event"
    },
    {
      "inputs": [],
      "name": "LNFTname",
      "outputs": [
        {
          "internalType": "string",
          "name": "",
          "type": "string"
        }
      ],
      "stateMutability": "view",
      "type": "function"
    },
    {
      "inputs": [
        {
          "internalType": "address",
          "name": "_newEmitter",
          "type": "address"
        }
      ],
      "name": "addEmitterAddress",
      "outputs": [],
      "stateMutability": "nonpayable",
      "type": "function"
    },
    {
      "inputs": [
        {
          "internalType": "address",
          "name": "to",
          "type": "address"
        },
        {
          "internalType": "uint256",
          "name": "tokenId",
          "type": "uint256"
        }
      ],
      "name": "approve",
      "outputs": [],
      "stateMutability": "nonpayable",
      "type": "function"
    },
    {
      "inputs": [
        {
          "internalType": "address",
          "name": "owner",
          "type": "address"
        }
      ],
      "name": "balanceOf",
      "outputs": [
        {
          "internalType": "uint256",
          "name": "",
          "type": "uint256"
        }
      ],
      "stateMutability": "view",
      "type": "function"
    },
    {
      "inputs": [],
      "name": "baseTokenURI",
      "outputs": [
        {
          "internalType": "string",
          "name": "",
          "type": "string"
        }
      ],
      "stateMutability": "view",
      "type": "function"
    },
    {
      "inputs": [],
      "name": "currentTokenId",
      "outputs": [
        {
          "internalType": "uint256",
          "name": "",
          "type": "uint256"
        }
      ],
      "stateMutability": "view",
      "type": "function"
    },
    {
      "inputs": [],
      "name": "description",
      "outputs": [
        {
          "internalType": "string",
          "name": "",
          "type": "string"
        }
      ],
      "stateMutability": "view",
      "type": "function"
    },
    {
      "inputs": [
        {
          "internalType": "uint256",
          "name": "tokenId",
          "type": "uint256"
        }
      ],
      "name": "getApproved",
      "outputs": [
        {
          "internalType": "address",
          "name": "",
          "type": "address"
        }
      ],
      "stateMutability": "view",
      "type": "function"
    },
    {
      "inputs": [
        {
          "internalType": "string",
          "name": "_baseTokenURI",
          "type": "string"
        },
        {
          "internalType": "string",
          "name": "_name",
          "type": "string"
        },
        {
          "internalType": "string",
          "name": "_description",
          "type": "string"
        },
        {
          "internalType": "uint256",
          "name": "_totalSupply",
          "type": "uint256"
        },
        {
          "internalType": "uint256",
          "name": "_mintPrice",
          "type": "uint256"
        }
      ],
      "name": "init",
      "outputs": [],
      "stateMutability": "nonpayable",
      "type": "function"
    },
    {
      "inputs": [
        {
          "internalType": "address",
          "name": "owner",
          "type": "address"
        },
        {
          "internalType": "address",
          "name": "operator",
          "type": "address"
        }
      ],
      "name": "isApprovedForAll",
      "outputs": [
        {
          "internalType": "bool",
          "name": "",
          "type": "bool"
        }
      ],
      "stateMutability": "view",
      "type": "function"
    },
    {
      "inputs": [],
      "name": "mintPrice",
      "outputs": [
        {
          "internalType": "uint256",
          "name": "",
          "type": "uint256"
        }
      ],
      "stateMutability": "view",
      "type": "function"
    },
    {
      "inputs": [
        {
          "internalType": "address",
          "name": "recipient",
          "type": "address"
        }
      ],
      "name": "mintTo",
      "outputs": [
        {
          "internalType": "uint256",
          "name": "",
          "type": "uint256"
        }
      ],
      "stateMutability": "payable",
      "type": "function"
    },
    {
      "inputs": [],
      "name": "name",
      "outputs": [
        {
          "internalType": "string",
          "name": "",
          "type": "string"
        }
      ],
      "stateMutability": "view",
      "type": "function"
    },
    {
      "inputs": [],
      "name": "owner",
      "outputs": [
        {
          "internalType": "address",
          "name": "",
          "type": "address"
        }
      ],
      "stateMutability": "view",
      "type": "function"
    },
    {
      "inputs": [
        {
          "internalType": "uint256",
          "name": "tokenId",
          "type": "uint256"
        }
      ],
      "name": "ownerOf",
      "outputs": [
        {
          "internalType": "address",
          "name": "",
          "type": "address"
        }
      ],
      "stateMutability": "view",
      "type": "function"
    },
    {
      "inputs": [],
      "name": "renounceOwnership",
      "outputs": [],
      "stateMutability": "nonpayable",
      "type": "function"
    },
    {
      "inputs": [
        {
          "internalType": "address",
          "name": "from",
          "type": "address"
        },
        {
          "internalType": "address",
          "name": "to",
          "type": "address"
        },
        {
          "internalType": "uint256",
          "name": "tokenId",
          "type": "uint256"
        }
      ],
      "name": "safeTransferFrom",
      "outputs": [],
      "stateMutability": "nonpayable",
      "type": "function"
    },
    {
      "inputs": [
        {
          "internalType": "address",
          "name": "from",
          "type": "address"
        },
        {
          "internalType": "address",
          "name": "to",
          "type": "address"
        },
        {
          "internalType": "uint256",
          "name": "tokenId",
          "type": "uint256"
        },
        {
          "internalType": "bytes",
          "name": "data",
          "type": "bytes"
        }
      ],
      "name": "safeTransferFrom",
      "outputs": [],
      "stateMutability": "nonpayable",
      "type": "function"
    },
    {
      "inputs": [
        {
          "internalType": "address",
          "name": "operator",
          "type": "address"
        },
        {
          "internalType": "bool",
          "name": "approved",
          "type": "bool"
        }
      ],
      "name": "setApprovalForAll",
      "outputs": [],
      "stateMutability": "nonpayable",
      "type": "function"
    },
    {
      "inputs": [
        {
          "internalType": "string",
          "name": "_baseTokenURI",
          "type": "string"
        }
      ],
      "name": "setTokenURI",
      "outputs": [],
      "stateMutability": "nonpayable",
      "type": "function"
    },
    {
      "inputs": [
        {
          "internalType": "bytes4",
          "name": "interfaceId",
          "type": "bytes4"
        }
      ],
      "name": "supportsInterface",
      "outputs": [
        {
          "internalType": "bool",
          "name": "",
          "type": "bool"
        }
      ],
      "stateMutability": "view",
      "type": "function"
    },
    {
      "inputs": [],
      "name": "symbol",
      "outputs": [
        {
          "internalType": "string",
          "name": "",
          "type": "string"
        }
      ],
      "stateMutability": "view",
      "type": "function"
    },
    {
      "inputs": [
        {
          "internalType": "uint256",
          "name": "tokenId",
          "type": "uint256"
        }
      ],
      "name": "tokenURI",
      "outputs": [
        {
          "internalType": "string",
          "name": "",
          "type": "string"
        }
      ],
      "stateMutability": "view",
      "type": "function"
    },
    {
      "inputs": [],
      "name": "totalSupply",
      "outputs": [
        {
          "internalType": "uint256",
          "name": "",
          "type": "uint256"
        }
      ],
      "stateMutability": "view",
      "type": "function"
    },
    {
      "inputs": [
        {
          "internalType": "address",
          "name": "from",
          "type": "address"
        },
        {
          "internalType": "address",
          "name": "to",
          "type": "address"
        },
        {
          "internalType": "uint256",
          "name": "tokenId",
          "type": "uint256"
        }
      ],
      "name": "transferFrom",
      "outputs": [],
      "stateMutability": "nonpayable",
      "type": "function"
    },
    {
      "inputs": [
        {
          "internalType": "address",
          "name": "newOwner",
          "type": "address"
        }
      ],
      "name": "transferOwnership",
      "outputs": [],
      "stateMutability": "nonpayable",
      "type": "function"
    },
    {
      "inputs": [
        {
          "internalType": "address payable",
          "name": "payee",
          "type": "address"
        }
      ],
      "name": "withdrawPayments",
      "outputs": [],
      "stateMutability": "nonpayable",
      "type": "function"
    }
  ],
  "bytecode": "0x60806040523480156200001157600080fd5b506040518060400160405280600781526020017f4c6976654e4654000000000000000000000000000000000000000000000000008152506040518060400160405280600481526020017f4c4e465400000000000000000000000000000000000000000000000000000000815250816000908051906020019062000096929190620001a6565b508060019080519060200190620000af929190620001a6565b505050620000d2620000c6620000d860201b60201c565b620000e060201b60201c565b620002bb565b600033905090565b6000600660009054906101000a900473ffffffffffffffffffffffffffffffffffffffff16905081600660006101000a81548173ffffffffffffffffffffffffffffffffffffffff021916908373ffffffffffffffffffffffffffffffffffffffff1602179055508173ffffffffffffffffffffffffffffffffffffffff168173ffffffffffffffffffffffffffffffffffffffff167f8be0079c531659141344cd1fd0a4f28419497f9722a3daafe3b4186f6b6457e060405160405180910390a35050565b828054620001b49062000285565b90600052602060002090601f016020900481019282620001d8576000855562000224565b82601f10620001f357805160ff191683800117855562000224565b8280016001018555821562000224579182015b828111156200022357825182559160200191906001019062000206565b5b50905062000233919062000237565b5090565b5b808211156200025257600081600090555060010162000238565b5090565b7f4e487b7100000000000000000000000000000000000000000000000000000000600052602260045260246000fd5b600060028204905060018216806200029e57607f821691505b60208210811415620002b557620002b462000256565b5b50919050565b61353a80620002cb6000396000f3fe60806040526004361061019b5760003560e01c8063715018a6116100ec578063a22cb4651161008a578063d547cfb711610064578063d547cfb7146105b8578063e0df5b6f146105e3578063e985e9c51461060c578063f2fde38b146106495761019b565b8063a22cb46514610529578063b88d4fde14610552578063c87b56dd1461057b5761019b565b80638741f6b6116100c65780638741f6b61461047f5780638da5cb5b146104aa57806395d89b41146104d5578063a13a16dc146105005761019b565b8063715018a61461040d5780637284e41614610424578063755edd171461044f5761019b565b806318160ddd1161015957806342842e0e1161013357806342842e0e1461033f5780636352211e146103685780636817c76c146103a557806370a08231146103d05761019b565b806318160ddd146102c257806323b872dd146102ed57806331b3eb94146103165761019b565b80629a9b7b146101a057806301ffc9a7146101cb57806304da18091461020857806306fdde0314610231578063081812fc1461025c578063095ea7b314610299575b600080fd5b3480156101ac57600080fd5b506101b5610672565b6040516101c291906122db565b60405180910390f35b3480156101d757600080fd5b506101f260048036038101906101ed9190612362565b610678565b6040516101ff91906123aa565b60405180910390f35b34801561021457600080fd5b5061022f600480360381019061022a9190612423565b61075a565b005b34801561023d57600080fd5b506102466107c8565b60405161025391906124e9565b60405180910390f35b34801561026857600080fd5b50610283600480360381019061027e9190612537565b61085a565b6040516102909190612573565b60405180910390f35b3480156102a557600080fd5b506102c060048036038101906102bb919061258e565b6108a0565b005b3480156102ce57600080fd5b506102d76109b8565b6040516102e491906122db565b60405180910390f35b3480156102f957600080fd5b50610314600480360381019061030f91906125ce565b6109be565b005b34801561032257600080fd5b5061033d6004803603810190610338919061265f565b610a1e565b005b34801561034b57600080fd5b50610366600480360381019061036191906125ce565b610ad3565b005b34801561037457600080fd5b5061038f600480360381019061038a9190612537565b610af3565b60405161039c9190612573565b60405180910390f35b3480156103b157600080fd5b506103ba610b7a565b6040516103c791906122db565b60405180910390f35b3480156103dc57600080fd5b506103f760048036038101906103f29190612423565b610b80565b60405161040491906122db565b60405180910390f35b34801561041957600080fd5b50610422610c38565b005b34801561043057600080fd5b50610439610c4c565b60405161044691906124e9565b60405180910390f35b61046960048036038101906104649190612423565b610cda565b60405161047691906122db565b60405180910390f35b34801561048b57600080fd5b50610494610d43565b6040516104a191906124e9565b60405180910390f35b3480156104b657600080fd5b506104bf610dd1565b6040516104cc9190612573565b60405180910390f35b3480156104e157600080fd5b506104ea610dfb565b6040516104f791906124e9565b60405180910390f35b34801561050c57600080fd5b50610527600480360381019061052291906127c1565b610e8d565b005b34801561053557600080fd5b50610550600480360381019061054b91906128bc565b610ee7565b005b34801561055e57600080fd5b506105796004803603810190610574919061299d565b610efd565b005b34801561058757600080fd5b506105a2600480360381019061059d9190612537565b610f5f565b6040516105af91906124e9565b60405180910390f35b3480156105c457600080fd5b506105cd61102e565b6040516105da91906124e9565b60405180910390f35b3480156105ef57600080fd5b5061060a60048036038101906106059190612a20565b6110bc565b005b34801561061857600080fd5b50610633600480360381019061062e9190612a69565b6110de565b60405161064091906123aa565b60405180910390f35b34801561065557600080fd5b50610670600480360381019061066b9190612423565b611172565b005b60075481565b60007f80ac58cd000000000000000000000000000000000000000000000000000000007bffffffffffffffffffffffffffffffffffffffffffffffffffffffff1916827bffffffffffffffffffffffffffffffffffffffffffffffffffffffff1916148061074357507f5b5e139f000000000000000000000000000000000000000000000000000000007bffffffffffffffffffffffffffffffffffffffffffffffffffffffff1916827bffffffffffffffffffffffffffffffffffffffffffffffffffffffff1916145b806107535750610752826111f6565b5b9050919050565b610762611260565b600d819080600181540180825580915050600190039060005260206000200160009091909190916101000a81548173ffffffffffffffffffffffffffffffffffffffff021916908373ffffffffffffffffffffffffffffffffffffffff16021790555050565b6060600080546107d790612ad8565b80601f016020809104026020016040519081016040528092919081815260200182805461080390612ad8565b80156108505780601f1061082557610100808354040283529160200191610850565b820191906000526020600020905b81548152906001019060200180831161083357829003601f168201915b5050505050905090565b6000610865826112de565b6004600083815260200190815260200160002060009054906101000a900473ffffffffffffffffffffffffffffffffffffffff169050919050565b60006108ab82610af3565b90508073ffffffffffffffffffffffffffffffffffffffff168373ffffffffffffffffffffffffffffffffffffffff16141561091c576040517f08c379a000000000000000000000000000000000000000000000000000000000815260040161091390612b7c565b60405180910390fd5b8073ffffffffffffffffffffffffffffffffffffffff1661093b611329565b73ffffffffffffffffffffffffffffffffffffffff16148061096a575061096981610964611329565b6110de565b5b6109a9576040517f08c379a00000000000000000000000000000000000000000000000000000000081526004016109a090612c0e565b60405180910390fd5b6109b38383611331565b505050565b600b5481565b6109cf6109c9611329565b826113ea565b610a0e576040517f08c379a0000000000000000000000000000000000000000000000000000000008152600401610a0590612ca0565b60405180910390fd5b610a1983838361147f565b505050565b610a26611260565b600047905060008273ffffffffffffffffffffffffffffffffffffffff1682604051610a5190612cf1565b60006040518083038185875af1925050503d8060008114610a8e576040519150601f19603f3d011682016040523d82523d6000602084013e610a93565b606091505b5050905080610ace576040517fd23a9e8900000000000000000000000000000000000000000000000000000000815260040160405180910390fd5b505050565b610aee83838360405180602001604052806000815250610efd565b505050565b600080610aff83611779565b9050600073ffffffffffffffffffffffffffffffffffffffff168173ffffffffffffffffffffffffffffffffffffffff161415610b71576040517f08c379a0000000000000000000000000000000000000000000000000000000008152600401610b6890612d52565b60405180910390fd5b80915050919050565b600c5481565b60008073ffffffffffffffffffffffffffffffffffffffff168273ffffffffffffffffffffffffffffffffffffffff161415610bf1576040517f08c379a0000000000000000000000000000000000000000000000000000000008152600401610be890612de4565b60405180910390fd5b600360008373ffffffffffffffffffffffffffffffffffffffff1673ffffffffffffffffffffffffffffffffffffffff168152602001908152602001600020549050919050565b610c40611260565b610c4a60006117b6565b565b600a8054610c5990612ad8565b80601f0160208091040260200160405190810160405280929190818152602001828054610c8590612ad8565b8015610cd25780601f10610ca757610100808354040283529160200191610cd2565b820191906000526020600020905b815481529060010190602001808311610cb557829003601f168201915b505050505081565b6000600c543414610d17576040517f21e191e200000000000000000000000000000000000000000000000000000000815260040160405180910390fd5b6000600760008154610d2890612e33565b9190508190559050610d3a838261187c565b80915050919050565b60098054610d5090612ad8565b80601f0160208091040260200160405190810160405280929190818152602001828054610d7c90612ad8565b8015610dc95780601f10610d9e57610100808354040283529160200191610dc9565b820191906000526020600020905b815481529060010190602001808311610dac57829003601f168201915b505050505081565b6000600660009054906101000a900473ffffffffffffffffffffffffffffffffffffffff16905090565b606060018054610e0a90612ad8565b80601f0160208091040260200160405190810160405280929190818152602001828054610e3690612ad8565b8015610e835780601f10610e5857610100808354040283529160200191610e83565b820191906000526020600020905b815481529060010190602001808311610e6657829003601f168201915b5050505050905090565b8460089080519060200190610ea392919061221f565b508360099080519060200190610eba92919061221f565b5082600a9080519060200190610ed192919061221f565b5081600b8190555080600c819055505050505050565b610ef9610ef2611329565b838361189a565b5050565b610f0e610f08611329565b836113ea565b610f4d576040517f08c379a0000000000000000000000000000000000000000000000000000000008152600401610f4490612ca0565b60405180910390fd5b610f5984848484611a07565b50505050565b6060600073ffffffffffffffffffffffffffffffffffffffff16610f8283610af3565b73ffffffffffffffffffffffffffffffffffffffff161415610fd0576040517fd872946b00000000000000000000000000000000000000000000000000000000815260040160405180910390fd5b600060088054610fdf90612ad8565b905011610ffb5760405180602001604052806000815250611027565b600861100683611a63565b604051602001611017929190612f4c565b6040516020818303038152906040525b9050919050565b6008805461103b90612ad8565b80601f016020809104026020016040519081016040528092919081815260200182805461106790612ad8565b80156110b45780601f10611089576101008083540402835291602001916110b4565b820191906000526020600020905b81548152906001019060200180831161109757829003601f168201915b505050505081565b6110c4611260565b80600890805190602001906110da92919061221f565b5050565b6000600560008473ffffffffffffffffffffffffffffffffffffffff1673ffffffffffffffffffffffffffffffffffffffff16815260200190815260200160002060008373ffffffffffffffffffffffffffffffffffffffff1673ffffffffffffffffffffffffffffffffffffffff16815260200190815260200160002060009054906101000a900460ff16905092915050565b61117a611260565b600073ffffffffffffffffffffffffffffffffffffffff168173ffffffffffffffffffffffffffffffffffffffff1614156111ea576040517f08c379a00000000000000000000000000000000000000000000000000000000081526004016111e190612fe2565b60405180910390fd5b6111f3816117b6565b50565b60007f01ffc9a7000000000000000000000000000000000000000000000000000000007bffffffffffffffffffffffffffffffffffffffffffffffffffffffff1916827bffffffffffffffffffffffffffffffffffffffffffffffffffffffff1916149050919050565b611268611329565b73ffffffffffffffffffffffffffffffffffffffff16611286610dd1565b73ffffffffffffffffffffffffffffffffffffffff16146112dc576040517f08c379a00000000000000000000000000000000000000000000000000000000081526004016112d39061304e565b60405180910390fd5b565b6112e781611b3b565b611326576040517f08c379a000000000000000000000000000000000000000000000000000000000815260040161131d90612d52565b60405180910390fd5b50565b600033905090565b816004600083815260200190815260200160002060006101000a81548173ffffffffffffffffffffffffffffffffffffffff021916908373ffffffffffffffffffffffffffffffffffffffff160217905550808273ffffffffffffffffffffffffffffffffffffffff166113a483610af3565b73ffffffffffffffffffffffffffffffffffffffff167f8c5be1e5ebec7d5bd14f71427d1e84f3dd0314c0f7b2291e5b200ac8c7c3b92560405160405180910390a45050565b6000806113f683610af3565b90508073ffffffffffffffffffffffffffffffffffffffff168473ffffffffffffffffffffffffffffffffffffffff161480611438575061143781856110de565b5b8061147657508373ffffffffffffffffffffffffffffffffffffffff1661145e8461085a565b73ffffffffffffffffffffffffffffffffffffffff16145b91505092915050565b8273ffffffffffffffffffffffffffffffffffffffff1661149f82610af3565b73ffffffffffffffffffffffffffffffffffffffff16146114f5576040517f08c379a00000000000000000000000000000000000000000000000000000000081526004016114ec906130e0565b60405180910390fd5b600073ffffffffffffffffffffffffffffffffffffffff168273ffffffffffffffffffffffffffffffffffffffff161415611565576040517f08c379a000000000000000000000000000000000000000000000000000000000815260040161155c90613172565b60405180910390fd5b6115728383836001611b7c565b8273ffffffffffffffffffffffffffffffffffffffff1661159282610af3565b73ffffffffffffffffffffffffffffffffffffffff16146115e8576040517f08c379a00000000000000000000000000000000000000000000000000000000081526004016115df906130e0565b60405180910390fd5b6004600082815260200190815260200160002060006101000a81549073ffffffffffffffffffffffffffffffffffffffff02191690556001600360008573ffffffffffffffffffffffffffffffffffffffff1673ffffffffffffffffffffffffffffffffffffffff168152602001908152602001600020600082825403925050819055506001600360008473ffffffffffffffffffffffffffffffffffffffff1673ffffffffffffffffffffffffffffffffffffffff16815260200190815260200160002060008282540192505081905550816002600083815260200190815260200160002060006101000a81548173ffffffffffffffffffffffffffffffffffffffff021916908373ffffffffffffffffffffffffffffffffffffffff160217905550808273ffffffffffffffffffffffffffffffffffffffff168473ffffffffffffffffffffffffffffffffffffffff167fddf252ad1be2c89b69c2b068fc378daa952ba7f163c4a11628f55a4df523b3ef60405160405180910390a46117748383836001611ca2565b505050565b60006002600083815260200190815260200160002060009054906101000a900473ffffffffffffffffffffffffffffffffffffffff169050919050565b6000600660009054906101000a900473ffffffffffffffffffffffffffffffffffffffff16905081600660006101000a81548173ffffffffffffffffffffffffffffffffffffffff021916908373ffffffffffffffffffffffffffffffffffffffff1602179055508173ffffffffffffffffffffffffffffffffffffffff168173ffffffffffffffffffffffffffffffffffffffff167f8be0079c531659141344cd1fd0a4f28419497f9722a3daafe3b4186f6b6457e060405160405180910390a35050565b611896828260405180602001604052806000815250611ca8565b5050565b8173ffffffffffffffffffffffffffffffffffffffff168373ffffffffffffffffffffffffffffffffffffffff161415611909576040517f08c379a0000000000000000000000000000000000000000000000000000000008152600401611900906131de565b60405180910390fd5b80600560008573ffffffffffffffffffffffffffffffffffffffff1673ffffffffffffffffffffffffffffffffffffffff16815260200190815260200160002060008473ffffffffffffffffffffffffffffffffffffffff1673ffffffffffffffffffffffffffffffffffffffff16815260200190815260200160002060006101000a81548160ff0219169083151502179055508173ffffffffffffffffffffffffffffffffffffffff168373ffffffffffffffffffffffffffffffffffffffff167f17307eab39ab6107e8899845ad3d59bd9653f200f220920489ca2b5937696c31836040516119fa91906123aa565b60405180910390a3505050565b611a1284848461147f565b611a1e84848484611d03565b611a5d576040517f08c379a0000000000000000000000000000000000000000000000000000000008152600401611a5490613270565b60405180910390fd5b50505050565b606060006001611a7284611e8b565b01905060008167ffffffffffffffff811115611a9157611a90612696565b5b6040519080825280601f01601f191660200182016040528015611ac35781602001600182028036833780820191505090505b509050600082602001820190505b600115611b30578080600190039150507f3031323334353637383961626364656600000000000000000000000000000000600a86061a8153600a8581611b1a57611b19613290565b5b0494506000851415611b2b57611b30565b611ad1565b819350505050919050565b60008073ffffffffffffffffffffffffffffffffffffffff16611b5d83611779565b73ffffffffffffffffffffffffffffffffffffffff1614159050919050565b6001811115611c9c57600073ffffffffffffffffffffffffffffffffffffffff168473ffffffffffffffffffffffffffffffffffffffff1614611c105780600360008673ffffffffffffffffffffffffffffffffffffffff1673ffffffffffffffffffffffffffffffffffffffff1681526020019081526020016000206000828254611c0891906132bf565b925050819055505b600073ffffffffffffffffffffffffffffffffffffffff168373ffffffffffffffffffffffffffffffffffffffff1614611c9b5780600360008573ffffffffffffffffffffffffffffffffffffffff1673ffffffffffffffffffffffffffffffffffffffff1681526020019081526020016000206000828254611c9391906132f3565b925050819055505b5b50505050565b50505050565b611cb28383611fde565b611cbf6000848484611d03565b611cfe576040517f08c379a0000000000000000000000000000000000000000000000000000000008152600401611cf590613270565b60405180910390fd5b505050565b6000611d248473ffffffffffffffffffffffffffffffffffffffff166121fc565b15611e7e578373ffffffffffffffffffffffffffffffffffffffff1663150b7a02611d4d611329565b8786866040518563ffffffff1660e01b8152600401611d6f949392919061339e565b6020604051808303816000875af1925050508015611dab57506040513d601f19601f82011682018060405250810190611da891906133ff565b60015b611e2e573d8060008114611ddb576040519150601f19603f3d011682016040523d82523d6000602084013e611de0565b606091505b50600081511415611e26576040517f08c379a0000000000000000000000000000000000000000000000000000000008152600401611e1d90613270565b60405180910390fd5b805181602001fd5b63150b7a0260e01b7bffffffffffffffffffffffffffffffffffffffffffffffffffffffff1916817bffffffffffffffffffffffffffffffffffffffffffffffffffffffff191614915050611e83565b600190505b949350505050565b600080600090507a184f03e93ff9f4daa797ed6e38ed64bf6a1f0100000000000000008310611ee9577a184f03e93ff9f4daa797ed6e38ed64bf6a1f0100000000000000008381611edf57611ede613290565b5b0492506040810190505b6d04ee2d6d415b85acef81000000008310611f26576d04ee2d6d415b85acef81000000008381611f1c57611f1b613290565b5b0492506020810190505b662386f26fc100008310611f5557662386f26fc100008381611f4b57611f4a613290565b5b0492506010810190505b6305f5e1008310611f7e576305f5e1008381611f7457611f73613290565b5b0492506008810190505b6127108310611fa3576127108381611f9957611f98613290565b5b0492506004810190505b60648310611fc65760648381611fbc57611fbb613290565b5b0492506002810190505b600a8310611fd5576001810190505b80915050919050565b600073ffffffffffffffffffffffffffffffffffffffff168273ffffffffffffffffffffffffffffffffffffffff16141561204e576040517f08c379a000000000000000000000000000000000000000000000000000000000815260040161204590613478565b60405180910390fd5b61205781611b3b565b15612097576040517f08c379a000000000000000000000000000000000000000000000000000000000815260040161208e906134e4565b60405180910390fd5b6120a5600083836001611b7c565b6120ae81611b3b565b156120ee576040517f08c379a00000000000000000000000000000000000000000000000000000000081526004016120e5906134e4565b60405180910390fd5b6001600360008473ffffffffffffffffffffffffffffffffffffffff1673ffffffffffffffffffffffffffffffffffffffff16815260200190815260200160002060008282540192505081905550816002600083815260200190815260200160002060006101000a81548173ffffffffffffffffffffffffffffffffffffffff021916908373ffffffffffffffffffffffffffffffffffffffff160217905550808273ffffffffffffffffffffffffffffffffffffffff16600073ffffffffffffffffffffffffffffffffffffffff167fddf252ad1be2c89b69c2b068fc378daa952ba7f163c4a11628f55a4df523b3ef60405160405180910390a46121f8600083836001611ca2565b5050565b6000808273ffffffffffffffffffffffffffffffffffffffff163b119050919050565b82805461222b90612ad8565b90600052602060002090601f01602090048101928261224d5760008555612294565b82601f1061226657805160ff1916838001178555612294565b82800160010185558215612294579182015b82811115612293578251825591602001919060010190612278565b5b5090506122a191906122a5565b5090565b5b808211156122be5760008160009055506001016122a6565b5090565b6000819050919050565b6122d5816122c2565b82525050565b60006020820190506122f060008301846122cc565b92915050565b6000604051905090565b600080fd5b600080fd5b60007fffffffff0000000000000000000000000000000000000000000000000000000082169050919050565b61233f8161230a565b811461234a57600080fd5b50565b60008135905061235c81612336565b92915050565b60006020828403121561237857612377612300565b5b60006123868482850161234d565b91505092915050565b60008115159050919050565b6123a48161238f565b82525050565b60006020820190506123bf600083018461239b565b92915050565b600073ffffffffffffffffffffffffffffffffffffffff82169050919050565b60006123f0826123c5565b9050919050565b612400816123e5565b811461240b57600080fd5b50565b60008135905061241d816123f7565b92915050565b60006020828403121561243957612438612300565b5b60006124478482850161240e565b91505092915050565b600081519050919050565b600082825260208201905092915050565b60005b8381101561248a57808201518184015260208101905061246f565b83811115612499576000848401525b50505050565b6000601f19601f8301169050919050565b60006124bb82612450565b6124c5818561245b565b93506124d581856020860161246c565b6124de8161249f565b840191505092915050565b6000602082019050818103600083015261250381846124b0565b905092915050565b612514816122c2565b811461251f57600080fd5b50565b6000813590506125318161250b565b92915050565b60006020828403121561254d5761254c612300565b5b600061255b84828501612522565b91505092915050565b61256d816123e5565b82525050565b60006020820190506125886000830184612564565b92915050565b600080604083850312156125a5576125a4612300565b5b60006125b38582860161240e565b92505060206125c485828601612522565b9150509250929050565b6000806000606084860312156125e7576125e6612300565b5b60006125f58682870161240e565b93505060206126068682870161240e565b925050604061261786828701612522565b9150509250925092565b600061262c826123c5565b9050919050565b61263c81612621565b811461264757600080fd5b50565b60008135905061265981612633565b92915050565b60006020828403121561267557612674612300565b5b60006126838482850161264a565b91505092915050565b600080fd5b600080fd5b7f4e487b7100000000000000000000000000000000000000000000000000000000600052604160045260246000fd5b6126ce8261249f565b810181811067ffffffffffffffff821117156126ed576126ec612696565b5b80604052505050565b60006127006122f6565b905061270c82826126c5565b919050565b600067ffffffffffffffff82111561272c5761272b612696565b5b6127358261249f565b9050602081019050919050565b82818337600083830152505050565b600061276461275f84612711565b6126f6565b9050828152602081018484840111156127805761277f612691565b5b61278b848285612742565b509392505050565b600082601f8301126127a8576127a761268c565b5b81356127b8848260208601612751565b91505092915050565b600080600080600060a086880312156127dd576127dc612300565b5b600086013567ffffffffffffffff8111156127fb576127fa612305565b5b61280788828901612793565b955050602086013567ffffffffffffffff81111561282857612827612305565b5b61283488828901612793565b945050604086013567ffffffffffffffff81111561285557612854612305565b5b61286188828901612793565b935050606061287288828901612522565b925050608061288388828901612522565b9150509295509295909350565b6128998161238f565b81146128a457600080fd5b50565b6000813590506128b681612890565b92915050565b600080604083850312156128d3576128d2612300565b5b60006128e18582860161240e565b92505060206128f2858286016128a7565b9150509250929050565b600067ffffffffffffffff82111561291757612916612696565b5b6129208261249f565b9050602081019050919050565b600061294061293b846128fc565b6126f6565b90508281526020810184848401111561295c5761295b612691565b5b612967848285612742565b509392505050565b600082601f8301126129845761298361268c565b5b813561299484826020860161292d565b91505092915050565b600080600080608085870312156129b7576129b6612300565b5b60006129c58782880161240e565b94505060206129d68782880161240e565b93505060406129e787828801612522565b925050606085013567ffffffffffffffff811115612a0857612a07612305565b5b612a148782880161296f565b91505092959194509250565b600060208284031215612a3657612a35612300565b5b600082013567ffffffffffffffff811115612a5457612a53612305565b5b612a6084828501612793565b91505092915050565b60008060408385031215612a8057612a7f612300565b5b6000612a8e8582860161240e565b9250506020612a9f8582860161240e565b9150509250929050565b7f4e487b7100000000000000000000000000000000000000000000000000000000600052602260045260246000fd5b60006002820490506001821680612af057607f821691505b60208210811415612b0457612b03612aa9565b5b50919050565b7f4552433732313a20617070726f76616c20746f2063757272656e74206f776e6560008201527f7200000000000000000000000000000000000000000000000000000000000000602082015250565b6000612b6660218361245b565b9150612b7182612b0a565b604082019050919050565b60006020820190508181036000830152612b9581612b59565b9050919050565b7f4552433732313a20617070726f76652063616c6c6572206973206e6f7420746f60008201527f6b656e206f776e6572206f7220617070726f76656420666f7220616c6c000000602082015250565b6000612bf8603d8361245b565b9150612c0382612b9c565b604082019050919050565b60006020820190508181036000830152612c2781612beb565b9050919050565b7f4552433732313a2063616c6c6572206973206e6f7420746f6b656e206f776e6560008201527f72206f7220617070726f76656400000000000000000000000000000000000000602082015250565b6000612c8a602d8361245b565b9150612c9582612c2e565b604082019050919050565b60006020820190508181036000830152612cb981612c7d565b9050919050565b600081905092915050565b50565b6000612cdb600083612cc0565b9150612ce682612ccb565b600082019050919050565b6000612cfc82612cce565b9150819050919050565b7f4552433732313a20696e76616c696420746f6b656e2049440000000000000000600082015250565b6000612d3c60188361245b565b9150612d4782612d06565b602082019050919050565b60006020820190508181036000830152612d6b81612d2f565b9050919050565b7f4552433732313a2061646472657373207a65726f206973206e6f74206120766160008201527f6c6964206f776e65720000000000000000000000000000000000000000000000602082015250565b6000612dce60298361245b565b9150612dd982612d72565b604082019050919050565b60006020820190508181036000830152612dfd81612dc1565b9050919050565b7f4e487b7100000000000000000000000000000000000000000000000000000000600052601160045260246000fd5b6000612e3e826122c2565b91507fffffffffffffffffffffffffffffffffffffffffffffffffffffffffffffffff821415612e7157612e70612e04565b5b600182019050919050565b600081905092915050565b60008190508160005260206000209050919050565b60008154612ea981612ad8565b612eb38186612e7c565b94506001821660008114612ece5760018114612edf57612f12565b60ff19831686528186019350612f12565b612ee885612e87565b60005b83811015612f0a57815481890152600182019150602081019050612eeb565b838801955050505b50505092915050565b6000612f2682612450565b612f308185612e7c565b9350612f4081856020860161246c565b80840191505092915050565b6000612f588285612e9c565b9150612f648284612f1b565b91508190509392505050565b7f4f776e61626c653a206e6577206f776e657220697320746865207a65726f206160008201527f6464726573730000000000000000000000000000000000000000000000000000602082015250565b6000612fcc60268361245b565b9150612fd782612f70565b604082019050919050565b60006020820190508181036000830152612ffb81612fbf565b9050919050565b7f4f776e61626c653a2063616c6c6572206973206e6f7420746865206f776e6572600082015250565b600061303860208361245b565b915061304382613002565b602082019050919050565b600060208201905081810360008301526130678161302b565b9050919050565b7f4552433732313a207472616e736665722066726f6d20696e636f72726563742060008201527f6f776e6572000000000000000000000000000000000000000000000000000000602082015250565b60006130ca60258361245b565b91506130d58261306e565b604082019050919050565b600060208201905081810360008301526130f9816130bd565b9050919050565b7f4552433732313a207472616e7366657220746f20746865207a65726f2061646460008201527f7265737300000000000000000000000000000000000000000000000000000000602082015250565b600061315c60248361245b565b915061316782613100565b604082019050919050565b6000602082019050818103600083015261318b8161314f565b9050919050565b7f4552433732313a20617070726f766520746f2063616c6c657200000000000000600082015250565b60006131c860198361245b565b91506131d382613192565b602082019050919050565b600060208201905081810360008301526131f7816131bb565b9050919050565b7f4552433732313a207472616e7366657220746f206e6f6e20455243373231526560008201527f63656976657220696d706c656d656e7465720000000000000000000000000000602082015250565b600061325a60328361245b565b9150613265826131fe565b604082019050919050565b600060208201905081810360008301526132898161324d565b9050919050565b7f4e487b7100000000000000000000000000000000000000000000000000000000600052601260045260246000fd5b60006132ca826122c2565b91506132d5836122c2565b9250828210156132e8576132e7612e04565b5b828203905092915050565b60006132fe826122c2565b9150613309836122c2565b9250827fffffffffffffffffffffffffffffffffffffffffffffffffffffffffffffffff0382111561333e5761333d612e04565b5b828201905092915050565b600081519050919050565b600082825260208201905092915050565b600061337082613349565b61337a8185613354565b935061338a81856020860161246c565b6133938161249f565b840191505092915050565b60006080820190506133b36000830187612564565b6133c06020830186612564565b6133cd60408301856122cc565b81810360608301526133df8184613365565b905095945050505050565b6000815190506133f981612336565b92915050565b60006020828403121561341557613414612300565b5b6000613423848285016133ea565b91505092915050565b7f4552433732313a206d696e7420746f20746865207a65726f2061646472657373600082015250565b600061346260208361245b565b915061346d8261342c565b602082019050919050565b6000602082019050818103600083015261349181613455565b9050919050565b7f4552433732313a20746f6b656e20616c7265616479206d696e74656400000000600082015250565b60006134ce601c8361245b565b91506134d982613498565b602082019050919050565b600060208201905081810360008301526134fd816134c1565b905091905056fea26469706673582212206c3e4599424bc0a8098da7b9f54643511c5b947e71bf7e512012d708ea7d3d5e64736f6c634300080a0033",
  "linkReferences": {},
  "deployedLinkReferences": {}
}